:1000000061C00000F5C300001AC4000082C00000F7
:1000100080C000007EC000007CC000008DC30000D6
:1000200078C0000076C0000074C000000C94581620
:1000300070C000006EC000006CC000006AC000000C
:1000400072C4000066C000009CC10000CCC100006A
:1000500060C000005EC000005CC000005AC000002C
:1000600058C0000056C00000020000000800020155
:10007000000003040700000000000000000102046B
:10008000081020408001020408102001020408101A
:100090002004040404040404040202020202020311
:1000A000030303030300000000250028002B0000C9
:1000B000000000240027002A000021028D025A08B7
:1000C0007509D10B11241FBECFEFD8E0DEBFCDBF25
:1000D00011E0A0E0B1E0ECEDFEE202C005900D926F
:1000E000A43BB107D9F729E0A4EBB1E001C01D9210
:1000F000AB30B207E1F710E0C2E6D0E004C02197D0
:10010000FE010E944E17CD35D107C9F702D40C94D9
:100110006C1776CFFC01918D228D892F90E0805C49
:100120009F4F821B91098F7399270895FC01918D30
:10013000828D981731F0828DE80FF11D858D90E04A
:1001400008958FEF9FEF0895FC01918D828D981790
:1001500061F0828DDF01A80FB11D5D968C91928DAB
:100160009F5F9F73928F90E008958FEF9FEF0895A8
:10017000FC01538D448D252F30E0842F90E0821BAD
:10018000930B541710F0CF9608950197089588E1C6
:1001900092E0892B41F080E090E0892B21F048D15A
:1001A00081110C9400000895FC01848DDF01A80FDB
:1001B000B11DA35ABF4F2C91848D90E001968F738F
:1001C0009927848FA689B7892C93A089B1898C91AE
:1001D00080648C93938D848D981306C00288F38974
:1001E000E02D80818F7D80830895CF93DF93EC0194
:1001F000888D8823C1F0EA89FB89808185FD05C04F
:10020000A889B9898C9186FD0EC00FB607FCF5CF81
:10021000808185FFF2CFA889B9898C9185FFEDCFC8
:10022000CE01C2DFE8CFDF91CF910895EF92FF9228
:100230000F931F93CF93DF93EC0181E0888F9B8D09
:100240008C8D981305C0E889F989808185FD23C0CC
:10025000F62E0B8D10E00F5F1F4F0F731127E02E4E
:100260008C8DE8120BC00FB607FCFACFE889F9892C
:10027000808185FFF5CFCE0197DFF2CF8B8DFE0118
:10028000E80FF11DE35AFF4FF0820B8FEA89FB89DB
:100290008081806207C0EE89FF896083E889F989DF
:1002A00080818064808381E090E0DF91CF911F9115
:1002B0000F91FF90EF900895CF92DF92EF92FF920F
:1002C0001F93CF93DF93EC016A017B01122FE88922
:1002D000F98982E080834115514E61057105B1F0C5
:1002E00060E079E08DE390E0A70196010E94061797
:1002F000DA01C9010197A109B109B695A7959795AA
:100300008795AC01411580E15807A8F0E889F98983
:10031000108260E874E88EE190E0A70196010E94E7
:100320000617BA01A9014150510961097109769571
:10033000679557954795EC85FD855083EE85FF853C
:100340004083188EEC89FD891083EA89FB898081BE
:1003500080618083EA89FB89808188608083EA8963
:10036000FB89808180688083EA89FB8980818F7D19
:100370008083DF91CF911F91FF90EF90DF90CF901E
:1003800008951F920F920FB60F9211242F938F93FF
:100390009F93EF93FF93E091C401F091C501808199
:1003A000E091CA01F091CB0182FD12C09081809151
:1003B000CD018F5F8F732091CE01821751F0E091B4
:1003C000CD01F0E0EC54FE4F958F8093CD0101C03C
:1003D0008081FF91EF919F918F912F910F900FBE90
:1003E0000F901F9018951F920F920FB60F92112425
:1003F0002F933F934F935F936F937F938F939F932D
:10040000AF93BF93EF93FF9384EB91E0CDDEFF9129
:10041000EF91BF91AF919F918F917F916F915F917C
:100420004F913F912F910F900FBE0F901F901895F5
:1004300084EB91E06FDE21E0892B09F420E0822F2C
:100440000895E4EBF1E01382128288EE93E0A0E0DD
:10045000B0E084839583A683B7838BE091E091839A
:10046000808385EC90E09587848784EC90E0978783
:10047000868780EC90E0918B808B81EC90E0938B71
:10048000828B82EC90E0958B848B86EC90E0978B4E
:10049000868B118E128E138E148E08958F929F92DA
:1004A000AF92BF92CF92DF92EF92FF920F931F9382
:1004B000CF93DF937C018B016C0182E0C80ED11CCD
:1004C0004701E5E08E0E911CC0E0D0E0F60161919D
:1004D0006F014AE050E0C801F5D05C016EE2C8014E
:1004E00068D08A0D9B1DC80FD91FC814D90471F795
:1004F0004AE050E0F7016581C801E4D08C0F9D1FF0
:10050000DF91CF911F910F91FF90EF90DF90CF90EF
:10051000BF90AF909F908F900895E1E5F2E08DE15C
:1005200091E0918380831282138214821582089550
:10053000CF92DF92EF92FF920F931F93CF93DF93AF
:100540006C017A018B01C0E0D0E0CE15DF0589F0A7
:10055000D8016D918D01D601ED91FC910190F08152
:10056000E02DC6010995892B11F47E0102C0219668
:10057000ECCFC701DF91CF911F910F91FF90EF90CA
:10058000DF90CF9008956115710579F0FB0101901E
:100590000020E9F73197AF01461B570BDC01ED91C5
:1005A000FC910280F381E02D099480E090E00895B1
:1005B000EACFDC01ED91FC910190F081E02D0994EE
:1005C0006FE171E0E0CF0F931F93CF93DF93EC01C6
:1005D000DADF8C01CE01F4DF800F911FDF91CF9124
:1005E0001F910F9108950F931F93CF93DF93EC0109
:1005F000E0DF8C01CE01E4DF800F911FDF91CF910E
:100600001F910F9108958F929F92AF92BF92CF92B8
:10061000DF92EF92FF920F931F93CF93DF93CDB7AB
:10062000DEB7A1970FB6F894DEBF0FBECDBF7C0139
:10063000D42EC52EDB0119A2223008F42AE08E0147
:100640000F5D1F4F822E912CA12CB12C6D2D7C2D76
:10065000CD01A50194010E940617D22EC32EDA0106
:10066000015011096A3071058105910510F4605D32
:1006700001C0695CF8016083232B242B252B31F703
:10068000B801C70180DFA1960FB6F894DEBF0FBE98
:10069000CDBFDF91CF911F910F91FF90EF90DF9031
:1006A000CF90BF90AF909F908F9008952115310506
:1006B00041F4DC01ED91FC910190F081E02D642F7B
:1006C0000994A1CF9A01462F50E060E070E0EECF90
:1006D000813039F018F0823051F0089510926E0098
:1006E000089580916F008D7F80936F0008958091B1
:1006F00070008D7F8093700081E08093B0008091C6
:10070000B100887F84608093B1001092B300089597
:10071000CF93C82F809100018C1307C0E8E6F0E06A
:10072000E4918FEF8093000101C0EFEF8E2FD0DFB7
:1007300060E08C2FCF91B3C21F920F920FB60F9231
:1007400011242F933F934F935F936F937F938F93D6
:100750009F93AF93BF93EF93FF9380915A02909131
:100760005B02A0915C02B0915D02892B8A2B8B2BDE
:1007700051F180915702E0915802F0915902908115
:100780008927808380915A0290915B02A0915C023C
:10079000B0915D02181619061A061B06BCF480916A
:1007A0005A0290915B02A0915C02B0915D020197A8
:1007B000A109B10980935A0290935B02A0935C0255
:1007C000B0935D0203C080910001A2DFFF91EF9121
:1007D000BF91AF919F918F917F916F915F914F9159
:1007E0003F912F910F900FBE0F901F901895089575
:1007F0001F920F920FB60F9211242F933F934F9396
:100800005F936F937F938F939F93AF93BF93EF9378
:10081000FF93E0910101F09102010995FF91EF91A1
:10082000BF91AF919F918F917F916F915F914F9108
:100830003F912F910F900FBE0F901F9018951F9210
:100840000F920FB60F9211242F933F934F935F9304
:100850006F937F938F939F93AF93BF93EF93FF9388
:10086000E0910301F09104010995FF91EF91BF918F
:10087000AF919F918F917F916F915F914F913F9138
:100880002F910F900FBE0F901F9018954F925F926F
:100890006F927F92AF92BF92CF92DF92EF92FF92D0
:1008A0000F931F93CF93DF93CDB7DEB729013A01A2
:1008B0009B01AC01241935094609570989899A8990
:1008C000AB89BC89BC01CD016A197B098C099D09E2
:1008D0000E94F716A80197012419350946095709FE
:1008E0000E942817CA01B9016A0D7B1D8C1D9D1D30
:1008F000DF91CF911F910F91FF90EF90DF90CF90FC
:10090000BF90AF907F906F905F904F900895089543
:100910000895C8D0FDDF4ED7C7ECD0E0ABD7209705
:10092000E9F335DCFBCF1F920F920FB60F92112423
:100930002F933F938F939F93AF93BF9380915F02C9
:1009400090916002A0916102B091620230915E02CA
:1009500023E0230F2D3720F40196A11DB11D05C002
:1009600026E8230F0296A11DB11D20935E028093FD
:100970005F0290936002A0936102B0936202809143
:10098000630290916402A0916502B09166020196A3
:10099000A11DB11D8093630290936402A093650230
:1009A000B0936602BF91AF919F918F913F912F912C
:1009B0000F900FBE0F901F9018952FB7F89460916D
:1009C0005F027091600280916102909162022FBF7C
:1009D00008953FB7F8948091630290916402A091CA
:1009E0006502B091660226B5A89B05C02F3F19F09D
:1009F0000196A11DB11D3FBFBA2FA92F982F88279F
:100A0000820F911DA11DB11DBC01CD0142E0660FF9
:100A1000771F881F991F4A95D1F708958F929F924B
:100A2000AF92BF92CF92DF92EF92FF926B017C0167
:100A3000D0DF4B015C01C114D104E104F104F1F0F9
:100A400066DFC7DFDC01CB0188199909AA09BB0958
:100A5000883E9340A105B10570F321E0C21AD10888
:100A6000E108F10888EE880E83E0981EA11CB11CF5
:100A7000C114D104E104F10421F7DDCFFF90EF9020
:100A8000DF90CF90BF90AF909F908F90089582306D
:100A9000910538F0880F991F880F991F05970197C6
:100AA000F1F70895789484B5826084BD84B581603F
:100AB00084BD85B5826085BD85B5816085BDEEE666
:100AC000F0E0808181608083E1E8F0E01082808145
:100AD00082608083808181608083E0E8F0E08081B3
:100AE00081608083E1EBF0E0808184608083E0EBD3
:100AF000F0E0808181608083EAE7F0E080818460BB
:100B00008083808182608083808181608083808116
:100B1000806880831092C10008951F93CF93DF9364
:100B2000182FEB0161E07FD0209711F460E004C042
:100B3000CF3FD10531F461E0812FDF91CF911F913B
:100B4000AEC0E12FF0E0E759FF4FE491E330F9F058
:100B500048F4E130B9F0E230A1F584B5806284BD9B
:100B6000C8BD34C0E730E9F0E83019F1E43049F5A8
:100B700080918000806280938000D0938B00C0932E
:100B80008A0024C084B5806884BDC7BD1FC0809121
:100B90008000806880938000D0938900C093880093
:100BA00015C08091B00080688093B000C093B300FE
:100BB0000DC08091B00080628093B000C093B400FB
:100BC00005C0C038D1050CF0B6CFB0CFDF91CF91C2
:100BD0001F910895833081F028F4813099F082309C
:100BE000A1F008958730A9F08830B9F08430D1F4AD
:100BF000809180008F7D03C0809180008F778093EB
:100C00008000089584B58F7702C084B58F7D84BD40
:100C100008958091B0008F7703C08091B0008F7DE0
:100C20008093B0000895CF93DF9390E0FC01E358E8
:100C3000FF4F2491FC01EF56FF4F8491882361F10F
:100C400090E0880F991FFC01E155FF4FC591D491A9
:100C5000FC01EB55FF4FA591B491611109C09FB7FD
:100C6000F8948881209582238883EC912E230BC0F1
:100C7000623061F49FB7F8943881822F8095832386
:100C80008883EC912E2B2C939FBF06C08FB7F894CE
:100C9000E8812E2B28838FBFDF91CF9108951F937A
:100CA000CF93DF93282F30E0F901E759FF4F84916C
:100CB000F901E358FF4FD491F901EF56FF4FC4916A
:100CC000CC23C1F0162F811185DFEC2FF0E0EE0F61
:100CD000FF1FEB55FF4FA591B4918FB7F8941111F9
:100CE00005C09C91ED2FE095E92302C0EC91ED2B1E
:100CF000EC938FBFDF91CF911F910895BF92CF9258
:100D0000DF92EF92FF920F931F93CF93DF93C82E42
:100D1000D62EB42EC7E0D0E0022F10E087E0E82EF8
:100D2000F12CB11005C0C7018C1B9D0B980102C0AE
:100D300098018C2F02C0359527958A95E2F7B90165
:100D4000617077278C2DABDF61E08D2DA8DF60E02F
:100D50008D2DA5DF219728F7DF91CF911F910F915E
:100D6000FF90EF90DF90CF90BF9008954F925F92E9
:100D70006F927F928F929F92AF92BF92CF92DF92AB
:100D8000EF92FF92CF93C82F7B014A0116DE2B0111
:100D90003C01970140E050E060E271EA87E090E0BA
:100DA0000E94281769017A0161E08C2F3CDFA12C99
:100DB000B12C03DEDC01CB0184199509A609B70922
:100DC00088159905AA05BB0558F461E08C2F67DFEB
:100DD000C6015DDE60E08C2F62DFC60158DEE9CF20
:100DE00060E08C2FCF91FF90EF90DF90CF90BF907D
:100DF000AF909F908F907F906F905F904F9013CFA8
:100E00004AEF50E064EC70E085E0B0DF6BEF70E03B
:100E100080E090E003DE4AEF50E065E071E085E0BD
:100E2000A5DF6BEF70E080E090E0F8DD4AEF50E086
:100E300069E471E085E09ADF6BEF70E080E090E0BC
:100E4000EDDD44EF51E06FE073E085E08FDF65EFAB
:100E500071E080E090E0E2CD4AEF50E064EC70E0B9
:100E600085E084DF6BEF70E080E090E0D7DD4AEF53
:100E700050E065E071E085E079DF6BEF70E080E0E5
:100E800090E0CCDD4AEF50E069E471E085E06EDF90
:100E90006BEF70E080E090E0C1DD4AEF50E068E881
:100EA00071E085E063DF6BEF70E080E090E0B6DD3D
:100EB0004AEF50E06BE072E085E058DF6BEF70E0E6
:100EC00080E090E0ABDD4AEF50E063E972E085E05E
:100ED0004DDF6BEF70E080E090E0A0DD4EEE52E081
:100EE0006FE073E085E042DF6FEE72E080E090E05B
:100EF00095DD4EEE52E063E972E085E037DF6FEE9C
:100F000072E080E090E08ADD4AEF50E06FEC70E044
:100F100085E02CDF6BEF70E080E090E07FDD4AEF52
:100F200050E065E071E085E021DF6BEF70E080E08C
:100F300090E074DD4AEF50E067E371E085E016DF92
:100F40006BEF70E080E090E069DD4AEF50E06FE920
:100F500071E085E00BDF6BEF70E080E090E05EDD3C
:100F60004AEF50E06BE072E085E000DF6BEF70E08D
:100F700080E090E053DD4AEF50E06EE672E085E0FD
:100F8000F5DE6BEF70E080E090E048DD4EEE52E081
:100F90006EE373E085E0EADE6FEE72E080E090E001
:100FA0003DDD4EEE52E06EE672E085E0DFDE6FEE94
:100FB00072E080E090E032DD4AEF50E069EE70E0F0
:100FC00085E0D4DE6BEF70E080E090E027DD4AEF53
:100FD00050E065E271E085E0C9DE6BEF70E080E033
:100FE00090E01CDD4AEF50E06DE571E085E0BEDE8B
:100FF0006BEF70E080E090E011DD4AEF50E062EDD1
:1010000071E085E0B3DE6BEF70E080E090E006DD3C
:101010004AEF50E06BE472E085E0A8DE6BEF70E031
:1010200080E090E0FBDC4AEF50E06AEB72E085E0A4
:101030009DDE6BEF70E080E090E0F0DC4EEE52E081
:1010400064EA73E085E092DE6FEE72E080E090E0AB
:10105000E5DC4AEF50E064EA73E085E087DE6BEFA1
:1010600070E080E090E0DADC4AEF50E064EA73E0A0
:1010700085E07CDE6BEF70E080E090E0CFDC4AEF53
:1010800050E064EA73E085E071DE6BEF70E080E0D1
:1010900090E0C4DC46ED56E066E174E085E066DE93
:1010A00067ED76E080E090E0B9DC60ED77E080E02D
:1010B00090E0B4CC40E061E081E0F3D490936A0228
:1010C0008093690243E060E081E0EBD49093680292
:1010D000809367020895CF93DF931F92CDB7DEB759
:1010E000282F60E08CE02983DADD298140E06DE083
:1010F0008BE004DE61E08CE00F90DF91CF91CFCDEB
:10110000CF93DF931F92CDB7DEB7198211E080E84D
:10111000C82ED12C00E020E030E0A901BE016F5FB5
:101120007F4F80916F029091700283D5E0916D02A4
:10113000F0916E02882309F46DC02FEF3FEFA901F3
:1011400060E070E0CF0175D5813021F780E0C3DF2A
:1011500068EC70E080E090E00E941712E12CF12C26
:101160008981882301F1812F0E2C01C0880F0A94F8
:10117000EAF7B1DF62E370E080E090E00E941712CE
:1011800000E020E030E0A901BE016F5F7F4F809159
:101190006F02909170024DD58FEFE81AF80A88E03F
:1011A000E816F104E9F6E12CF12C8981882309F194
:1011B000C6010E2C02C0959587950A94E2F78BDF45
:1011C00062E370E080E090E00E94171200E020E00F
:1011D00030E0A901BE016F5F7F4F80916F02909157
:1011E000700227D58FEFE81AF80A88E0E816F104B4
:1011F000E1F68981882361F002E020E030E0A90176
:10120000BE016F5F7F4F80916F02909170027BD41F
:1012100000E013C000E02FEF3FEFA90160E070E0B5
:10122000CF0107D5813009F075CF8FEF54DF68EC1F
:1012300070E080E090E00E94171220E030E0A90109
:1012400060E070E080916D0290916E025CD462CF9C
:10125000CF93DF931F92CDB7DEB719822AEFE22E2C
:10126000F12C00E020E030E0A901BE016F5F7F4F6C
:101270008091710290917202DCD4882359F08981A7
:10128000811104C09AEFE92EF12C04C084EFE82EFE
:10129000FF24F39400E02FEF3FEFA90160E070E03E
:1012A00080916B0290916C02C4D48130D1F661E0E0
:1012B00086E0F5DC47010F2C000CAA08BB08C5012D
:1012C000B4010E94171260E086E0E9DCC501B401B8
:1012D0000E94171220E030E0A90160E070E08091E8
:1012E0006B0290916C020FD4BCCF40E061E081E0D2
:1012F000D8D3909372028093710240E061E081E064
:10130000D0D39093700280936F0243E060E081E05D
:10131000C8D390936E0280936D0243E060E081E059
:10132000C0D390936C0280936B020895CF93DF93A8
:1013300000D0CDB7DEB71982EE24EA94F12C9924BF
:101340009A9400E02FEF3FEFA901BE016E5F7F4F3F
:1013500080917302909174026CD4182F813089F7B8
:101360006A8184EB91E03FD96EE271E084EB91E019
:101370002AD99A81983591F58FEFADDE64EF71E04F
:1013800080E090E04BDB80E0A6DE64EF71E080E07F
:1013900090E044DB8FEF9FDE64EF71E080E090E04F
:1013A0003DDB80E098DE64EF71E080E090E036DBCA
:1013B00020E030E0A90160E070E080916B02909144
:1013C0006C02A1D320E030E0A90160E070E08091E0
:1013D0006D0290916E0297D313DDB3CF9837B9F4B5
:1013E00000E02FEF3FEFA90160E070E080916B0219
:1013F00090916C021ED42FEF3FEFA90160E070E0E6
:1014000080916D0290916E0214D426DD9ACF9634AD
:1014100079F461E471E084EB91E0D5D8B7018AE01A
:101420007CDBB70188E079DB60E089E038DC39C03B
:10143000923499F469E471E084EB91E0C4D8B70187
:1014400089E06BDBB70187E068DB60E08AE027DCDE
:1014500060E088E024DC198380C1923591F460E774
:1014600071E084EB91E0AFD8B7018AE056DB60E031
:1014700088E015DC60E089E012DCB70187E04DDB35
:10148000EACF9C3489F467E671E084EB91E09BD865
:1014900060E08AE004DCB70188E03FDBB70189E067
:1014A0003CDB60E087E0D6CF973481F46EE471E0F6
:1014B00084EB91E088D8B701F7FE02C06F5F7F4FE1
:1014C000759567958AE029DBB70111C09934B9F4A5
:1014D00068E571E084EB91E076D8B7018AE01DDB26
:1014E000B701F7FE02C06F5F7F4F7595679588E083
:1014F00014DB60E089E0D3DB60E087E02AC0983449
:1015000081F463E671E084EB91E05DD8B701F7FE0A
:1015100002C06F5F7F4F7595679589E0FEDAB7016E
:1015200011C09A34D1F46CE671E084EB91E04BD8B1
:10153000B70189E0F2DAB701F7FE02C06F5F7F4FB3
:101540007595679587E0E9DA60E08AE0A8DB60E0FE
:1015500088E0A5DB81E0898300C1963511F461E064
:1015600003C0963721F460E08BE099DBEACE90333C
:1015700019F4E12CF12CE5CE9133A1F41F921F92C6
:101580001F929F92A12CB12C65011AE0E12EF12C43
:1015900000E010E020E030E0A90161E070E080E0D0
:1015A00090E0C5C09233A1F41F921F921F929F92A8
:1015B000A12CB12C65011AE0E12EF12C00E010E025
:1015C00020E030E0A90162E070E080E090E0AFC090
:1015D0009333A1F41F921F921F929F92A12CB12CC2
:1015E00065011AE0E12EF12C00E010E020E030E08F
:1015F000A90163E070E080E090E099C09433A1F429
:101600001F921F921F929F92A12CB12C65011AE08C
:10161000E12EF12C00E010E020E030E0A90164E0D0
:1016200070E080E090E083C09533A1F41F921F9298
:101630001F929F92A12CB12C65011AE0E12EF12C92
:1016400000E010E020E030E0A90165E070E080E01B
:1016500090E06DC09633A1F41F921F921F929F924B
:10166000A12CB12C65011AE0E12EF12C00E010E074
:1016700020E030E0A90166E070E080E090E057C033
:101680009733A1F41F921F921F929F92A12CB12C0D
:1016900065011AE0E12EF12C00E010E020E030E0DE
:1016A000A90167E070E080E090E041C09833A1F4C8
:1016B0001F921F921F929F92A12CB12C65011AE0DC
:1016C000E12EF12C00E010E020E030E0A90168E01C
:1016D00070E080E090E02BC09933A1F41F921F923C
:1016E0001F929F92A12CB12C65011AE0E12EF12CE2
:1016F00000E010E020E030E0A90169E070E080E067
:1017000090E015C09137D1F41F921F921F929F92C3
:10171000A12CB12C65011AE0E12EF12C00E010E0C3
:1017200020E030E0A9016AE070E080E090E0AED80F
:101730007B010F900F900F900F9003CE933529F5FA
:1017400060E08AE0ACDA60E088E0A9DA60E089E095
:10175000A6DA60E087E0A3DA198202E020E030E058
:10176000A901BE016F5F7F4F80917102909172025B
:10177000CAD120E030E0A901BE016F5F7F4F8091A8
:101780006F0290917002BFD1DCCD66E771E084EB0F
:1017900091E00E94D8026A8184EB91E00E94F302FA
:1017A000D0CD40E061E08AE07CD1909374028093D8
:1017B00073020895AF92BF92CF92DF92EF92FF92A1
:1017C0000F9361E08AE02FDA61E089E02CDA61E0D2
:1017D00088E029DA61E087E026DA61E08BE023DA4D
:1017E00061E086E020DA61E08CE01DDA61E08BE008
:1017F0001ADA61E08DE017DA26E040E855E260E0B1
:1018000070E084EB91E00E945C01A12CB12CC12C12
:10181000D12CE12CF12C01E020E030E042E350E05B
:1018200068E871E080E898E02AD320E030E042E305
:1018300050E061E971E088E299E021D303E020E023
:1018400030E042E350E068E971E086E999E017D3BF
:1018500002E020E030E044E650E065EA71E08BE32E
:101860009CE00DD30F91FF90EF90DF90CF90BF9051
:10187000AF90F9C30895CF93DF9300D000D01F92AB
:10188000CDB7DEB719821A821B821C8284EB91E0ED
:101890000E948A00892BD1F084EB91E00E94A40081
:1018A0008D83682F84EB91E00E94D90200E020E054
:1018B00030E0A901BE016B5F7F4F80917302909170
:1018C000740221D184EB91E00E94F50042E350E0E4
:1018D00060E070E0CE01019643D5D8CF1F93CF933F
:1018E000DF93EC01142F88A181110BC088819981AD
:1018F000892B09F041C08A819B817BD71B821A8288
:101900003CC0482F50E0111115C08C819D810E9470
:10191000631728A18C819D81820F911D9D838C83EB
:101920002A813B818217930738F1888199819D83B1
:101930008C8322C08E819F810E94631788A190E0D2
:101940009195819591092E813F81280F391F3F8301
:101950002E83488159812417350730F42A813B8131
:10196000820F931F9F838E83123031F48E8D8823D4
:1019700019F08E8D81508E8F80E09E8D9F5F9E8F9F
:10198000DF91CF911F910895FC01CB0140A1442329
:10199000A1F050E026813781240F351F378326833D
:1019A000628173812617370720F0208131813783C8
:1019B0002683668177810C94631708950F931F9394
:1019C000CF93DF93EC010FB6F8940F928C010D5E6C
:1019D0001F4F9AA119165CF48B89882341F0C80126
:1019E00004D68111A3D69AA191509AA3F2CF8FEF7A
:1019F0008AA30F900FBE0FB6F8940F928E01085F66
:101A00001F4F99A119165CF48885882341F0C801FD
:101A1000ECD581118BD699A1915099A3F2CF8FEF7C
:101A200089A30F900FBEDF91CF911F910F91089561
:101A3000CF93DF93EC010FB6F8940F922881398190
:101A40009F8D48A1949FC0011124F901E80FF91F4F
:101A5000FB83EA831E8E3D832C83841B9109820FB6
:101A6000931F9F838E838FEF89A38AA361110BC07D
:101A70008885882381F0CE010896B7D5813059F446
:101A80000E94A61508C0CE0108960E945A16CE01E3
:101A900043960E945A160F900FBE81E0DF91CF91BE
:101AA0000895EF92FF921F93CF93DF931F92CDB7CC
:101AB000DEB7182F662331F0869F90011124C901EB
:101AC000019602C080E090E083966983DED67C01B7
:101AD0006981009781F0611104C0FC0191838083CA
:101AE00004C08396F70191838083F701178F60A369
:101AF00061E0C7019DDFC7010F90DF91CF911F917A
:101B0000FF90EF900895AF92BF92CF92DF92EF9245
:101B1000FF920F93CF93DF93CDB7DEB729970FB620
:101B2000F894DEBF0FBECDBF7C016B012E833F83D7
:101B30004887598790E0570188E0A80EB11C0FB67E
:101B4000F8940F92F701268D878D281710F0023038
:101B5000A9F4402FB601C701C1DEF701938999238B
:101B600039F0C701439641D5813021F4EFD702C047
:101B70008111FCCF0F900FBE81E04BC04E815F8181
:101B800068857985452B462B472B19F40F900FBE9E
:101B90003FC0911103C0CE01019664D50F900FBED6
:101BA000A1D20FB6F8940F92F70181A18F3F09F4EB
:101BB00011A2F70182A18F3F09F412A20F900FBE6C
:101BC000BE016A5F7F4FCE0101965DD581111DC0B8
:101BD0000FB6F8940F92F701968D0F900FBE878D78
:101BE00098130FC04E815F8168857985C501D6D471
:101BF000C701E4DE4AD3882311F091E0A0CFA6D735
:101C0000FCCFC701DBDE41D3F8CFC701D7DE3DD320
:101C100080E029960FB6F894DEBF0FBECDBFDF91EE
:101C2000CF910F91FF90EF90DF90CF90BF90AF904A
:101C30000895AF92BF92CF92DF92EF92FF920F93EF
:101C4000CF93DF93CDB7DEB729970FB6F894DEBFF9
:101C50000FBECDBF7C016B012E833F834887598720
:101C600090E0570183E1A80EB11C0FB6F8940F92D3
:101C7000F701868D882361F1A680B780B601C70180
:101C800083DEF701011116C0868D8150868F808119
:101C90009181892B21F4E7D5F70193838283F701A2
:101CA0008085882389F0C70108969FD4813061F42C
:101CB0004DD70AC0B782A6828389882329F0C7013D
:101CC000439693D48111F4CF0F900FBE81E056C09C
:101CD0004E815F8168857985452B462B472B19F40A
:101CE0000F900FBE4AC0911103C0CE010196BAD425
:101CF0000F900FBEF7D10FB6F8940F92F70181A1A4
:101D00008F3F09F411A2F70182A18F3F09F412A2BB
:101D10000F900FBEBE016A5F7F4FCE010196B3D414
:101D2000811128C00FB6F8940F92F701868D0F909D
:101D30000FBE81111BC080819181892B41F40FB6A8
:101D4000F8940F9282819381F5D40F900FBE4E814B
:101D50005F8168857985C50121D4C7012FDE95D2C1
:101D6000882311F091E081CFF1D6FCCFC70126DEA8
:101D70008CD2F8CFC70122DE88D280E029960FB638
:101D8000F894DEBF0FBECDBFDF91CF910F91FF90D2
:101D9000EF90DF90CF90BF90AF900895E0919E02BA
:101DA000F0919F028081811104C08FEF9FEFDC01D1
:101DB0000EC0E0919E02F0919F020780F085E02D19
:101DC0000084F185E02D82819381A481B581809387
:101DD000760290937702A0937802B09379020895E7
:101DE000CF92DF92EF92FF92E0912403F0912503CE
:101DF0006283738384839583C0908002D090810234
:101E0000E0908202F09083026C157D058E059F059F
:101E100078F4609124037091250380919C02909145
:101E20009D026E5F7F4FFF90EF90DF90CF9078C75D
:101E30006B017C01609124037091250380919E02C7
:101E400090919F026E5F7F4F6BD780917602909149
:101E50007702A0917802B0917902C816D906EA06F5
:101E6000FB0640F4C0927602D0927702E0927802AC
:101E7000F0927902FF90EF90DF90CF9008955F92FB
:101E80006F927F928F929F92AF92BF92CF92DF928A
:101E9000EF92FF920F931F93CF93DF934C01162F76
:101EA000572E5A013901C114D10431F4CA01EDD4BD
:101EB0006C01892B09F4C6C08CE290E0E6D4EC01F9
:101EC000009779F0DC8ECB8E21E0A21AB108AC0C21
:101ED000BD1CBC01635E7F4FE12FF52DCF0108963D
:101EE00006C0C60162D5AEC0E817F90749F09F01E8
:101EF0004191DB014D93BD01D9012C912111F4CF0A
:101F00001CA2102F0A3008F019E01A8F1DA31EA280
:101F10006E01B2E0CB0ED11CC601DDD6CE010E960D
:101F2000DAD6DB87CA878AE090E0A0E0B0E0811BC8
:101F30009109A109B1098E879F87A88BB98BDF8B87
:101F4000CE8B1FA218A619A61AA61BA6A301B40120
:101F5000C50155D599838883E114F10419F0F7017F
:101F6000D183C0830FB6F8940F92809184028F5F63
:101F7000809384028091240390912503892B79F525
:101F8000D0932503C0932403809184028130B1F55E
:101F900086EBE82E82E0F82EC7018CD6FBE0EF0E30
:101FA000F11C24E2E21623E0F206B1F78BEA92E09C
:101FB00081D680EA92E07ED681E992E07BD686E8FF
:101FC00092E078D68BEA92E090939F0280939E02F3
:101FD00080EA92E090939D0280939C020FC08091D2
:101FE0007E0281110BC0E0912403F0912503828DC4
:101FF000081720F0D0932503C093240380917A0220
:102000008F5F80937A028A8D90917F02981710F4E7
:1020100080937F02ABE08A9FC0011124B6018A54ED
:102020009D4F5DD60F900FBE80917E02882341F0B8
:10203000E0912403F0912503828D801708F486D562
:1020400081E001C08FEFDF91CF911F910F91FF9041
:10205000EF90DF90CF90BF90AF909F908F907F9048
:102060006F905F900895AF92BF92CF92DF92EF9200
:10207000FF920F93A12CB12CC12CD12CE12CF12C6F
:1020800000E020E030E045E550E06FEA71E084E5F3
:1020900092E1F5DE8130F1F4F8944FEF5FEFBA0191
:1020A000409376025093770260937802709379029E
:1020B00080937E021092800210928102109282021E
:1020C000109283020F91FF90EF90DF90CF90BF901E
:1020D000AF9001C50F91FF90EF90DF90CF90BF9030
:1020E000AF900895809175028F5F80937502089577
:1020F0008F929F92AF92BF92EF92FF920F931F9396
:10210000CF93DF93809175028111A9C080918002E5
:1021100090918102A0918202B09183020196A11D4B
:10212000B11D8093800290938102A0938202B093AC
:1021300083028090800290908102A0908202B090F1
:10214000830281149104A104B104B1F480919E0230
:1021500090919F0220919C0230919D0230939F02AA
:1021600020939E0290939D0280939C0280917B021B
:102170008F5F80937B0212DE8091760290917702CE
:10218000A0917802B0917902C0E088169906AA065B
:10219000BB0608F454C0DBE0E0919E02F0919F0280
:1021A0008081811104C08FEF9FEFDC0113C0E091AB
:1021B0009E02F0919F020780F085E02D0085118539
:1021C000F80182819381A481B58188169906AA06B7
:1021D000BB0648F48093760290937702A09378022E
:1021E000B09379022CC07801F2E0EF0EF11CC70128
:1021F000DBD5D80158968D919C915997892B19F070
:10220000C8010E96D1D5F801928D80917F02891771
:1022100010F490937F02D99FC0011124B7018A5412
:102220009D4F5DD5E0912403F0912503D8015A9686
:102230009C91828D981708F4AFCFC1E0ADCFE091AB
:102240002403F0912503E28DBBE0EB9FF001112404
:10225000EA54FD4F8081823040F0C1E006C0809199
:102260007D028F5F80937D02C0E080917C028111AE
:10227000C1E08C2FDF91CF911F910F91FF90EF90D4
:10228000BF90AF909F908F900895EF92FF920F9321
:102290001F93CF93DF930FB6F8940F92809175023E
:1022A00081508093750280917502882311F080E03F
:1022B0004EC0809184028823D1F38BE0F82EEE2467
:1022C000E39480919102882339F1E0919802F09192
:1022D0009902C085D185CE010E9666D58E010E5F1E
:1022E0001F4FC80161D59A8D80917F02891710F424
:1022F00090937F02F99EC0011124B8018A549D4F2A
:10230000EED4E0912403F09125039A8D828D9817E5
:10231000C0F2E0927C02D5CF80917D02811108C08D
:1023200080917C02813009F0C2CF10D481E00FC0CF
:10233000C1E080917D02882399F3DADE8111C09398
:102340007C0280917D02815080937D02F2CF0F90BC
:102350000FBEDF91CF911F910F91FF90EF900895E5
:10236000AF92BF92CF92DF92EF92FF920F931F93A3
:10237000CF93DF9300D000D0CDB7DEB75C014983A7
:102380005A836B837C83AEDE0091800210918102C0
:102390002091820230918302F50180819181A28196
:1023A000B38149815A816B817C816C017D01C40EAE
:1023B000D51EE61EF71E081719072A073B0730F43B
:1023C000C816D906EA06FB0660F405C0C816D90689
:1023D000EA06FB0640F091E00C151D052E053F05B1
:1023E00018F090E001C091E0F501C082D182E28254
:1023F000F382992349F0809124039091250302965A
:10240000D3D4C701B601ECDC40DF811101C09ED3FB
:102410000F900F900F900F90DF91CF911F910F9120
:10242000FF90EF90DF90CF90BF90AF900895CF9244
:10243000DF92EF92FF92CF93DF9300D000D0CDB721
:10244000DEB7611571058105910511F47FD321C0B7
:1024500069837A838B839C8345DEC0908002D09011
:102460008102E0908202F090830269817A818B81FF
:102470009C81C60ED71EE81EF91E80912403909100
:102480002503029691D4C701B601AADCFEDE88239B
:10249000E9F20F900F900F900F90DF91CF91FF9086
:1024A000EF90DF90CF90089580918502882321F1ED
:1024B00019DEC0918602E9DECC23B1F30FB6F894A1
:1024C0000F92E0918D02F0918E02C085D185CE01F0
:1024D00002966AD480918402815080938402809114
:1024E00085028150809385020F900FBE8B8D9C8D4D
:1024F0005CD2CE015AD2D8CF8091B6028230A0F2FF
:1025000025D3D2CF80917502882321F081E080937A
:102510007C02089510927C029BE0E0917F029E9FD6
:10252000F0011124EA54FD4F8081811106C0809191
:102530007F02815080937F02F0CF80917F0290E0F4
:102540004BE0489F9001499F300D1124F901EA5456
:10255000FD4FA181B28114960D90BC91A02DB28344
:10256000A18327543D4FA217B30731F414962D9140
:102570003C911597328321832BE0289FF001299FFE
:10258000F00D1124EA54FD4F0180F281E02D808589
:10259000918590932503809324030895CF92DF9231
:1025A000EF92FF926A017B01209124033091250371
:1025B000B901625F7F4FB4D38091240390912503CA
:1025C0000296F2D38091800290918102A0918202C2
:1025D000B0918302BC01CD016C0D7D1D8E1D9F1D30
:1025E000FF90EF90DF90CF90FBCB0F931F93CF9393
:1025F000DF93DC011796ED91FC911897C085D1858A
:102600008E01025F1F4FC801CFD3809175028111E7
:1026100013C00C501109C801C7D39A8D80917F0255
:10262000891710F490937F02BBE09B9FC001112497
:10263000B8018A549D4F03C0B80181E992E04FD39D
:10264000E0912403F09125039A8D828D891720F45F
:1026500081E080937C0201C080E0DF91CF911F91E7
:102660000F91089520917B02FC012083409180020C
:102670005091810260918202709183024183528362
:102680006383748308958F929F92AF92BF92CF928B
:10269000DF92EF92FF920F931F93FB010FB6F89416
:1026A0000F92C0908002D0908102E0908202F09060
:1026B000830230917B02DC012C9111964D915D914A
:1026C0006D917C911497321729F0C416D506E60651
:1026D000F706F0F400811181228133814601570110
:1026E000841A950AA60AB70A80169106A206B306AE
:1026F00078F44C195D096E097F09400F511F621F64
:10270000731F4083518362837383ACDF80E001C019
:1027100081E00F900FBE1F910F91FF90EF90DF901F
:10272000CF90BF90AF909F908F90089581E080935D
:102730007C0208950F931F93CF93DF93FC01892BA5
:1027400009F452C0828DA0912403B09125035A96BA
:102750009C91891708F048C0468557856089718922
:1027600077FD12C0A0912403B09125035A969C9145
:102770004AE050E060E070E0491B510961097109CD
:1027800046875787608B718B2BE0829FC001112495
:102790008A549D4F2485358528173907F1F48F0118
:1027A000EF012296CE0100D3E0912403F09125039E
:1027B000928DF801928F80917F02891710F4909387
:1027C0007F02FBE09F9FC0011124BE018A549D4FF0
:1027D000DF91CF911F910F9182C2A0912403B091FC
:1027E00025035A968C91828FDF91CF911F910F9183
:1027F00008950F931F93CF93DF93FC01892B11F45E
:1028000080E02CC086A1815086A3228D95A1291736
:10281000B9F38111F5CFEF018F010E5F1F4FC80192
:10282000C3D29DA19A8F4AE050E060E070E0491B5E
:102830005109610971094E875F87688B798B809197
:102840007F02891710F490937F022BE0929FC001C2
:102850001124B8018A549D4F42D281E0DF91CF917B
:102860001F910F9108958091240390912503892B46
:1028700039F0E0912403F091250386A18F5F86A3B0
:10288000809124039091250308950F931F93CF9374
:10289000DF93EC0127DC80912603811121C080E3C6
:1028A00093E090932C0380932B0310922E031092AD
:1028B0002D038BED95E090932A03809329031092CA
:1028C000280310922703909333038093320387E207
:1028D00093E0909331038093300381E0809326034B
:1028E000209709F02496CE0101978A3D954008F083
:1028F00053C0E0912B03F0912C03ABE2B3E0828153
:1029000093818C179D0728F023E0E732F20749F402
:1029100043C02081318121153105B1F3DF01F90177
:10292000EECF0D911C9111970C5F1F4F20813181CB
:102930002D933C938C1B9D0B8930910500F1DF0199
:10294000AC0FBD1F13969C938E931297D383C283B3
:1029500012962D913C9113976BE273E0EB01888105
:102960009981EC014A815B814217530710F4BC0145
:10297000F5CF11969C938E93EB01B983A883809138
:1029800005019091060122813381821B930B909364
:1029900006018093050102C000E010E076DCC8016A
:1029A000DF91CF911F910F910895CF93DF930097FF
:1029B00019F1EC01249796DB8A819B81EBE2F3E02D
:1029C000A081B18112962D913C9113972817390758
:1029D00010F4FD01F5CFB983A883D183C083209182
:1029E000050130910601820F931F90930601809399
:1029F0000501DF91CF9149CCDF91CF91089531E16D
:102A0000FC013083319722E220833197A3E3A08336
:102A1000319760833197708331971082319760E8E6
:102A2000608331971082319762E06083319763E071
:102A30006083319764E06083319765E0608331970C
:102A400066E06083319767E06083319768E0608378
:102A5000319769E06083319760E16083319730831B
:102A6000319732E13083319733E13083319734E16C
:102A70003083319735E13083319736E130833197B8
:102A800037E13083319738E13083319739E1308352
:102A9000319730E23083319731E2308331972083B0
:102AA000319723E2208331974083319750833197C8
:102AB00026E22083319727E22083319728E2208382
:102AC000319729E22083319720E32083319721E356
:102AD00020838697089589E08093890083EC809312
:102AE00088008BE080938100EFE6F0E080818260D7
:102AF0008083A0912403B0912503CD91CDBFDD91BA
:102B0000DEBFFF91EF91DF91CF91BF91AF919F9188
:102B10008F917F916F915F914F913F912F911F9175
:102B20000F91FF90EF90DF90CF90BF90AF909F906C
:102B30008F907F906F905F904F903F902F901F905D
:102B40000F900FBE0F90089581E008950F920FB679
:102B5000F8940F921F9211242F923F924F925F92FE
:102B60006F927F928F929F92AF92BF92CF92DF929D
:102B7000EF92FF920F931F932F933F934F935F9387
:102B80006F937F938F939F93AF93BF93CF93DF9375
:102B9000EF93FF93A0912403B09125030DB60D92FE
:102BA0000EB60D92AFDCA0912403B0912503CD9118
:102BB000CDBFDD91DEBFFF91EF91DF91CF91BF914E
:102BC000AF919F918F917F916F915F914F913F91C5
:102BD0002F911F910F91FF90EF90DF90CF90BF90BA
:102BE000AF909F908F907F906F905F904F903F90AD
:102BF0002F901F900F900FBE0F9008950F920FB659
:102C0000F8940F921F9211242F923F924F925F924D
:102C10006F927F928F929F92AF92BF92CF92DF92EC
:102C2000EF92FF920F931F932F933F934F935F93D6
:102C30006F937F938F939F93AF93BF93CF93DF93C4
:102C4000EF93FF93A0912403B09125030DB60D924D
:102C50000EB60D924DDA811155DCA0912403B0918E
:102C60002503CD91CDBFDD91DEBFFF91EF91DF91C7
:102C7000CF91BF91AF919F918F917F916F915F9114
:102C80004F913F912F911F910F91FF90EF90DF9007
:102C9000CF90BF90AF909F908F907F906F905F90FC
:102CA0004F903F902F901F900F900FBE0F90089560
:102CB000A5DF1895FC010396928381834FEF5FEFA8
:102CC000BA01438354836583768390878783928791
:102CD000818710820895FC01138612860895CF9390
:102CE000DF939C01FB01DC011196CD91DC911297E1
:102CF000D583C4838E819F81978386838E819F81B4
:102D0000DC0115967C936E9314977F836E833387D3
:102D10002287F90180818F5F8083DF91CF910895B1
:102D2000EF92FF920F931F93CF93DF937C01FB01F0
:102D300040815181628173814F3F8FEF580768074F
:102D4000780721F4E701A985BA8512C0D701139647
:102D500014968D919C911597EC01088119812A8117
:102D60003B81401751076207730710F0DC01F0CF79
:102D700014968D919C91159795838483EC01FF8324
:102D8000EE83B783A6831596FC93EE931497F38690
:102D9000E286F70180818F5F8083DF91CF911F9161
:102DA0000F91FF90EF900895CF93DF93FC01A285E0
:102DB000B3858481958126813781EC013F832E8301
:102DC000C681D7819D838C8311968D919C9112979A
:102DD0008E179F0721F41296DC93CE9311971386DA
:102DE00012868C9181508C93DF91CF910895DB01F5
:102DF0008F939F9349D0BF91AF91A29F800D911D5A
:102E0000A39F900DB29F900D11240895A1E21A2E58
:102E1000AA1BBB1BFD010DC0AA1FBB1FEE1FFF1F7E
:102E2000A217B307E407F50720F0A21BB30BE40BCE
:102E3000F50B661F771F881F991F1A9469F7609515
:102E40007095809590959B01AC01BD01CF010895CF
:102E5000052E97FB16F400940FD057FD05D0D6DF52
:102E600007FC02D046F408C0509540953095219556
:102E70003F4F4F4F5F4F08959095809570956195A6
:102E80007F4F8F4F9F4F08950FD0A59F900DB49FF8
:102E9000900DA49F800D911D11240895EE0FFF1F2A
:102EA0000590F491E02D0994A29FB001B39FC00159
:102EB000A39F700D811D1124911DB29F700D811D66
:102EC0001124911D0895FB01DC0102C001900D92B7
:0C2ED00041505040D8F70895F894FFCF0F
:102EDC00FFF703F703DB050000000016019802B8AA
:102EEC0000F5008A00A4009600000000004E020DC0
:102EFC000A006E616E00696E66006F766600646F24
:102F0C006573207468697320657865637574653FB3
:102F1C0000464F5257415244004241434B004652E7
:102F2C004F4E544C4546540046524F4E545249470E
:102F3C004854004241434B4C454654004241434B9C
:102F4C00524947485400496E76616C696420636F3E
:102F5C006D6D616E643A2000677265656E4C454418
:102F6C00007265644C4544006D6F76656D656E74DA
:102F7C007461736B00626C7565746F6F7468004973
:042F8C00444C45006C
:00000001FF
