:1000000061C000005CC6000081C6000082C0000024
:1000100080C000007EC000007CC00000F4C500006D
:1000200078C0000076C0000074C000000C94F61781
:1000300070C000006EC000006CC000006AC000000C
:10004000D9C6000066C000009CC10000CCC1000001
:1000500060C000005EC000005CC000005AC000002C
:1000600058C0000056C00000020000000800020155
:10007000000003040700000000000000000102046B
:10008000081020408001020408102001020408101A
:100090002004040404040404040202020202020311
:1000A000030303030300000000250028002B0000C9
:1000B000000000240027002A000021028D02100AFF
:1000C0006D0CD00D11241FBECFEFD8E0DEBFCDBF29
:1000D00011E0A0E0B1E0E8E1F2E302C005900D928A
:1000E000AE3BB107D9F729E0AEEBB1E001C01D92FC
:1000F000A132B207E1F710E0C2E6D0E004C02197D8
:10010000FE010E94EC18CD35D107C9F769D60C94D1
:100110000A1976CFFC01918D228D892F90E0805CA9
:100120009F4F821B91098F7399270895FC01918D30
:10013000828D981731F0828DE80FF11D858D90E04A
:1001400008958FEF9FEF0895FC01918D828D981790
:1001500061F0828DDF01A80FB11D5D968C91928DAB
:100160009F5F9F73928F90E008958FEF9FEF0895A8
:10017000FC01538D448D252F30E0842F90E0821BAD
:10018000930B541710F0CF9608950197089588E1C6
:1001900092E0892B41F080E090E0892B21F048D15A
:1001A00081110C9400000895FC01848DDF01A80FDB
:1001B000B11DA35ABF4F2C91848D90E001968F738F
:1001C0009927848FA689B7892C93A089B1898C91AE
:1001D00080648C93938D848D981306C00288F38974
:1001E000E02D80818F7D80830895CF93DF93EC0194
:1001F000888D8823C1F0EA89FB89808185FD05C04F
:10020000A889B9898C9186FD0EC00FB607FCF5CF81
:10021000808185FFF2CFA889B9898C9185FFEDCFC8
:10022000CE01C2DFE8CFDF91CF910895EF92FF9228
:100230000F931F93CF93DF93EC0181E0888F9B8D09
:100240008C8D981305C0E889F989808185FD23C0CC
:10025000F62E0B8D10E00F5F1F4F0F731127E02E4E
:100260008C8DE8120BC00FB607FCFACFE889F9892C
:10027000808185FFF5CFCE0197DFF2CF8B8DFE0118
:10028000E80FF11DE35AFF4FF0820B8FEA89FB89DB
:100290008081806207C0EE89FF896083E889F989DF
:1002A00080818064808381E090E0DF91CF911F9115
:1002B0000F91FF90EF900895CF92DF92EF92FF920F
:1002C0001F93CF93DF93EC016A017B01122FE88922
:1002D000F98982E080834115514E61057105B1F0C5
:1002E00060E079E08DE390E0A70196010E94A418F8
:1002F000DA01C9010197A109B109B695A7959795AA
:100300008795AC01411580E15807A8F0E889F98983
:10031000108260E874E88EE190E0A70196010E94E7
:10032000A418BA01A90141505109610971097695D2
:10033000679557954795EC85FD855083EE85FF853C
:100340004083188EEC89FD891083EA89FB898081BE
:1003500080618083EA89FB89808188608083EA8963
:10036000FB89808180688083EA89FB8980818F7D19
:100370008083DF91CF911F91FF90EF90DF90CF901E
:1003800008951F920F920FB60F9211242F938F93FF
:100390009F93EF93FF93E091CE01F091CF01808185
:1003A000E091D401F091D50182FD12C0908180913D
:1003B000D7018F5F8F732091D801821751F0E091A0
:1003C000D701F0E0E254FE4F958F8093D70101C032
:1003D0008081FF91EF919F918F912F910F900FBE90
:1003E0000F901F9018951F920F920FB60F92112425
:1003F0002F933F934F935F936F937F938F939F932D
:10040000AF93BF93EF93FF938EEB91E0CDDEFF911F
:10041000EF91BF91AF919F918F917F916F915F917C
:100420004F913F912F910F900FBE0F901F901895F5
:100430008EEB91E06FDE21E0892B09F420E0822F22
:100440000895EEEBF1E01382128288EE93E0A0E0D3
:10045000B0E084839583A683B7838BE091E091839A
:10046000808385EC90E09587848784EC90E0978783
:10047000868780EC90E0918B808B81EC90E0938B71
:10048000828B82EC90E0958B848B86EC90E0978B4E
:10049000868B118E128E138E148E08958F929F92DA
:1004A000AF92BF92CF92DF92EF92FF920F931F9382
:1004B000CF93DF937C018B016C0182E0C80ED11CCD
:1004C0004701E5E08E0E911CC0E0D0E0F60161919D
:1004D0006F014AE050E0C801F5D05C016EE2C8014E
:1004E00068D08A0D9B1DC80FD91FC814D90471F795
:1004F0004AE050E0F7016581C801E4D08C0F9D1FF0
:10050000DF91CF911F910F91FF90EF90DF90CF90EF
:10051000BF90AF909F908F900895EBE5F2E08DE152
:1005200091E0918380831282138214821582089550
:10053000CF92DF92EF92FF920F931F93CF93DF93AF
:100540006C017A018B01C0E0D0E0CE15DF0589F0A7
:10055000D8016D918D01D601ED91FC910190F08152
:10056000E02DC6010995892B11F47E0102C0219668
:10057000ECCFC701DF91CF911F910F91FF90EF90CA
:10058000DF90CF9008956115710579F0FB0101901E
:100590000020E9F73197AF01461B570BDC01ED91C5
:1005A000FC910280F381E02D099480E090E00895B1
:1005B000EACFDC01ED91FC910190F081E02D0994EE
:1005C0006FE171E0E0CF0F931F93CF93DF93EC01C6
:1005D000DADF8C01CE01F4DF800F911FDF91CF9124
:1005E0001F910F9108950F931F93CF93DF93EC0109
:1005F000E0DF8C01CE01E4DF800F911FDF91CF910E
:100600001F910F9108958F929F92AF92BF92CF92B8
:10061000DF92EF92FF920F931F93CF93DF93CDB7AB
:10062000DEB7A1970FB6F894DEBF0FBECDBF7C0139
:10063000D42EC52EDB0119A2223008F42AE08E0147
:100640000F5D1F4F822E912CA12CB12C6D2D7C2D76
:10065000CD01A50194010E94A418D22EC32EDA0167
:10066000015011096A3071058105910510F4605D32
:1006700001C0695CF8016083232B242B252B31F703
:10068000B801C70180DFA1960FB6F894DEBF0FBE98
:10069000CDBFDF91CF911F910F91FF90EF90DF9031
:1006A000CF90BF90AF909F908F9008952115310506
:1006B00041F4DC01ED91FC910190F081E02D642F7B
:1006C0000994A1CF9A01462F50E060E070E0EECF90
:1006D0003F924F925F926F927F928F929F92AF92D2
:1006E000BF92CF92DF92EF92FF920F931F93CF931F
:1006F000DF9300D000D0CDB7DEB7909100019817FE
:1007000021F09F3F09F035C204C0E8E6F0E03490E4
:1007100081C080930001E8E6F0E0E491EF3F09F446
:1007200028C2E13031F1E23009F44BC0E11171C06F
:1007300014BC15BC94B5926094BD95B5916095BDFF
:10074000A82FB0E0FD01EF56FF4FE491F0E0EE0F6F
:10075000FF1FEB55FF4F0591149110937102009309
:100760007002FD01E358FF4FE491E0936F02312CDA
:1007700053C0109280001092810090918100986087
:100780009093810090918100916090938100A82FB7
:10079000B0E0FD01EF56FF4FE491F0E0EE0FFF1FD8
:1007A000EB55FF4F0591149110936A020093690273
:1007B000FD01E358FF4FE491E09368023324339442
:1007C0002BC01092B0001092B1009091B0009260D6
:1007D0009093B0009091B10091609093B100A82FD8
:1007E000B0E0FD01EF56FF4FE491F0E0EE0FFF1F88
:1007F000EB55FF4F05911491109363020093620231
:10080000FD01E358FF4FE491E093610202E0302ED6
:1008100003C03E2E37FCADC129013A018B0161E0D6
:1008200052D44801A12CB12C832D8D7F09F0BBC07F
:1008300060E072E18AE790E0A50194010E94A418AB
:1008400029833A834B835C8369017A0121E0C21AD0
:10085000D108E108F1088FEFC816D104E104F104D2
:1008600009F008F44CC060E472E48FE090E0A50168
:1008700094010E94A41869017A01E1E0CE1AD1081E
:10088000E108F108F2E03F1220C02FEFC216D104B8
:10089000E104F10409F008F46AC160E970ED83E055
:1008A00090E0A50194010E94A41869017A0181E0F9
:1008B000C81AD108E108F108EFEFCE16D104E1041F
:1008C000F10409F0D0F583E067C0FFEFCF16D10443
:1008D000E104F104B1F0A8F068E478EE81E090E082
:1008E000A50194010E94A41869017A0181E0C81A47
:1008F000D108E108F108332009F4DFC02FC181E0FD
:1009000001C082E03320A1F047C089819A81AB8188
:10091000BC812AE0B695A795979587952A95D1F73A
:100920006C017D0121E0C21AD108E108F10885E0DF
:1009300095B5987F892B85BD6FC068E478EE81E01E
:1009400090E0A50194010E94A41869017A01F1E0E8
:10095000CF1AD108E108F1082FEFC216D104E10443
:10096000F10409F008F4A7C064E274EF80E090E0BD
:10097000A50194010E94A41869017A01E1E0CE1A50
:10098000D108E108F108FFEFCF16D104E104F1042A
:1009900011F008F0B4C085E09091B100987F892BE8
:1009A0008093B10039C060E072E18AE790E0A50170
:1009B00094010E94A41869017A0181E0C81AD10843
:1009C000E108F108C114D104E1E0EE06F10488F079
:1009D00068E478EE81E090E0A50194010E94A418FB
:1009E00069017A01F1E0CF1AD108E108F10893E03A
:1009F00001C091E021E032120FC080918100887F18
:100A0000892B80938100411451046104710449F4DD
:100A10002FEF3FEFA9012DC041145104610471046F
:100A200071F0D801AA0FBB1FA30192010E94E21826
:100A300028EE33E040E050E00E94A41803C02FEFFE
:100A40003FEFA90181E03816A1F0E2E03E1619F16E
:100A500031108FC0C7BC2093720230937302409351
:100A600074025093750280916E00826080936E00D4
:100A700080C0D0928900C092880020936B0230938E
:100A80006C0240936D0250936E0280916F00826001
:100A900080936F006EC0C092B300209364023093C5
:100AA00065024093660250936702809170008260F5
:100AB000809370005EC084E06FCFFFEFCF16D1044B
:100AC000E104F104D1F0C8F062E17AE780E090E05F
:100AD000A50194010E94A41869017A0181E0C81A55
:100AE000D108E108F108EFEFCE16D104E104F104DA
:100AF00011F008F00ACF84E01BCF83E019CF62E148
:100B00007AE780E090E0A50194010E94A4186901B1
:100B10007A0181E0C81AD108E108F108EFEFCE169A
:100B2000D104E104F104C1F0B8F089819A81AB816C
:100B3000BC814AE0B695A795979587954A95D1F7D8
:100B40006C017D0121E0C21AD108E108F1083320CF
:100B500009F4EDCE87E020CF86E0D4CEFFEFCF16AC
:100B6000D104E104F10409F050F684E0CBCE82E038
:100B700013CF0F900F900F900F90DF91CF911F9197
:100B80000F91FF90EF90DF90CF90BF90AF909F902C
:100B90008F907F906F905F904F903F90089581303D
:100BA00039F018F0823051F0089510926E000895D7
:100BB00080916F008D7F80936F0008958091700009
:100BC0008D7F8093700081E08093B0008091B100B0
:100BD000887F84608093B1001092B3000895CF9312
:100BE000C82F809100018C1307C0E8E6F0E0E49183
:100BF0008FEF8093000101C0EFEF8E2FD0DF60E018
:100C00008C2FCF919CC21F920F920FB60F9211247E
:100C10002F933F934F935F936F937F938F939F9304
:100C2000AF93BF93EF93FF9380916402909165021D
:100C3000A0916602B0916702892B8A2B8B2B51F110
:100C400080916102E0916202F091630290818927B4
:100C500080838091640290916502A0916602B091B8
:100C60006702181619061A061B06BCF48091640266
:100C700090916502A0916602B09167020197A10967
:100C8000B1098093640290936502A0936602B093C9
:100C9000670203C080910001A2DFFF91EF91BF9135
:100CA000AF919F918F917F916F915F914F913F9104
:100CB0002F910F900FBE0F901F90189508951F92BF
:100CC0000F920FB60F9211242F933F934F935F9380
:100CD0006F937F938F939F93AF93BF93EF93FF9304
:100CE000E0910101F09102010995FF91EF91BF910F
:100CF000AF919F918F917F916F915F914F913F91B4
:100D00002F910F900FBE0F901F9018951F920F926A
:100D10000FB60F9211242F933F934F935F936F93CE
:100D20007F938F939F93AF93BF93EF93FF93E09144
:100D30000301F09104010995FF91EF91BF91AF91EB
:100D40009F918F917F916F915F914F913F912F91E3
:100D50000F900FBE0F901F9018954F925F926F9259
:100D60007F92AF92BF92CF92DF92EF92FF920F935A
:100D70001F93CF93DF93CDB7DEB729013A019B01D3
:100D8000AC01241935094609570989899A89AB8923
:100D9000BC89BC01CD016A197B098C099D090E949F
:100DA0009518A801970124193509460957090E9489
:100DB000C618CA01B9016A0D7B1D8C1D9D1DDF91EE
:100DC000CF911F910F91FF90EF90DF90CF90BF9048
:100DD000AF907F906F905F904F9008950895089521
:100DE000B1D0FDDF67D6C7ECD0E0D9D62097E9F3C4
:100DF000CED9FBCF1F920F920FB60F9211242F93D3
:100E00003F938F939F93AF93BF938091770290917D
:100E10007802A0917902B0917A023091760223E0B3
:100E2000230F2D3720F40196A11DB11D05C026E822
:100E3000230F0296A11DB11D2093760280937702A5
:100E400090937802A0937902B0937A0280917B020A
:100E500090917C02A0917D02B0917E020196A11D2D
:100E6000B11D80937B0290937C02A0937D02B0938E
:100E70007E02BF91AF919F918F913F912F910F90E3
:100E80000FBE0F901F9018953FB7F89480917B028A
:100E900090917C02A0917D02B0917E0226B5A89B24
:100EA00005C02F3F19F00196A11DB11D3FBFBA2FFC
:100EB000A92F982F8827820F911DA11DB11DBC015C
:100EC000CD0142E0660F771F881F991F4A95D1F721
:100ED00008958F929F92AF92BF92CF92DF92EF923E
:100EE000FF926B017C01D0DF4B015C01C114D10486
:100EF000E104F104F1F072DFC7DFDC01CB018819F6
:100F00009909AA09BB09883E9340A105B10570F370
:100F100021E0C21AD108E108F10888EE880E83E0CA
:100F2000981EA11CB11CC114D104E104F10421F7E5
:100F3000DDCFFF90EF90DF90CF90BF90AF909F906C
:100F40008F900895789484B5826084BD84B5816063
:100F500084BD85B5826085BD85B5816085BDEEE6C1
:100F6000F0E0808181608083E1E8F0E010828081A0
:100F700082608083808181608083E0E8F0E080810E
:100F800081608083E1EBF0E0808184608083E0EB2E
:100F9000F0E0808181608083EAE7F0E08081846016
:100FA0008083808182608083808181608083808172
:100FB000806880831092C10008951F93CF93DF93C0
:100FC000182FEB0161E07FD0209711F460E004C09E
:100FD000CF3FD10531F461E0812FDF91CF911F9197
:100FE000AEC0E12FF0E0E759FF4FE491E330F9F0B4
:100FF00048F4E130B9F0E230A1F584B5806284BDF7
:10100000C8BD34C0E730E9F0E83019F1E43049F503
:1010100080918000806280938000D0938B00C09389
:101020008A0024C084B5806884BDC7BD1FC080917C
:101030008000806880938000D0938900C0938800EE
:1010400015C08091B00080688093B000C093B30059
:101050000DC08091B00080628093B000C093B40056
:1010600005C0C038D1050CF0B6CFB0CFDF91CF911D
:101070001F910895833081F028F4813099F08230F7
:10108000A1F008958730A9F08830B9F08430D1F408
:10109000809180008F7D03C0809180008F77809346
:1010A0008000089584B58F7702C084B58F7D84BD9C
:1010B00008958091B0008F7703C08091B0008F7D3C
:1010C0008093B0000895CF93DF9390E0FC01E35844
:1010D000FF4F2491FC01EF56FF4F8491882361F16B
:1010E00090E0880F991FFC01E155FF4FC591D49105
:1010F000FC01EB55FF4FA591B491611109C09FB759
:10110000F8948881209582238883EC912E230BC04C
:10111000623061F49FB7F8943881822F80958323E1
:101120008883EC912E2B2C939FBF06C08FB7F89429
:10113000E8812E2B28838FBFDF91CF9108951F93D5
:10114000CF93DF93282F30E0F901E759FF4F8491C7
:10115000F901E358FF4FD491F901EF56FF4FC491C5
:10116000CC23C1F0162F811185DFEC2FF0E0EE0FBC
:10117000FF1FEB55FF4FA591B4918FB7F894111154
:1011800005C09C91ED2FE095E92302C0EC91ED2B79
:10119000EC938FBFDF91CF911F910895BF92CF92B3
:1011A000DF92EF92FF920F931F93CF93DF93C82E9E
:1011B000D62EB42EC7E0D0E0022F10E087E0E82E54
:1011C000F12CB11005C0C7018C1B9D0B980102C00A
:1011D00098018C2F02C0359527958A95E2F7B901C1
:1011E000617077278C2DABDF61E08D2DA8DF60E08B
:1011F0008D2DA5DF219728F7DF91CF911F910F91BA
:10120000FF90EF90DF90CF90BF900895CF93DF9342
:101210001F92CDB7DEB7282F60E08CE029838FDFE7
:10122000298140E06DE08BE0B9DF61E08CE00F9058
:10123000DF91CF9184CFCF93DF931F92CDB7DEB7ED
:10124000198211E080E8C82ED12C00E020E030E0C7
:10125000A901BE016F5F7F4F80918302909184024C
:1012600086D6E0918102F0918202882309F46DC054
:101270002FEF3FEFA90160E070E0CF0178D6813019
:1012800021F780E0C3DF68EC70E080E090E00E942E
:10129000B513E12CF12C8981882301F1812F0E2CCB
:1012A00001C0880F0A94EAF7B1DF62E370E080E0E2
:1012B00090E00E94B51300E020E030E0A901BE01FB
:1012C0006F5F7F4F809183029091840250D68FEFA1
:1012D000E81AF80A88E0E816F104E9F6E12CF12CA6
:1012E0008981882309F1C6010E2C02C09595879546
:1012F0000A94E2F78BDF62E370E080E090E00E9406
:10130000B51300E020E030E0A901BE016F5F7F4F20
:1013100080918302909184022AD68FEFE81AF80A0E
:1013200088E0E816F104E1F68981882361F002E0A3
:1013300020E030E0A901BE016F5F7F4F8091830202
:10134000909184027ED500E013C000E02FEF3FEFC4
:10135000A90160E070E0CF010AD6813009F075CFB5
:101360008FEF54DF68EC70E080E090E00E94B513EE
:1013700020E030E0A90160E070E08091810290916E
:1013800082025FD562CFCF93DF931F92CDB7DEB7D6
:1013900019822AEFE22EF12C00E020E030E0A901D2
:1013A000BE016F5F7F4F8091850290918602DFD5ED
:1013B000882359F08981811104C09AEFE92EF12C1C
:1013C00004C084EFE82EFF24F39400E02FEF3FEFFA
:1013D000A90160E070E080917F0290918002C7D502
:1013E0008130D1F661E086E0AADE47010F2C000CC7
:1013F000AA08BB08C501B4010E94B51360E086E0ED
:101400009EDEC501B4010E94B51320E030E0A901C1
:1014100060E070E080917F029091800212D5BCCF95
:1014200040E061E081E0DBD4909386028093850206
:1014300040E061E081E0D3D4909384028093830202
:1014400043E060E081E0CBD49093820280938102FC
:1014500043E060E081E0C3D49093800280937F02F8
:101460000895CF93DF9300D0CDB7DEB71982EE2475
:10147000EA94F12C99249A9400E02FEF3FEFA90110
:10148000BE016E5F7F4F80918702909188026FD579
:10149000182F813089F76A818EEB91E0A4D86EE233
:1014A00071E08EEB91E08FD89A81983581F58FEFBE
:1014B000ADDE64EF71E080E090E00BDD80E0A6DE61
:1014C00064EF71E080E090E004DD8FEF9FDE64EF79
:1014D00071E080E090E0FDDC80E098DE64EF71E098
:1014E00080E090E0F6DC20E030E0A90160E070E010
:1014F00080917F0290918002A4D420E030E0A90185
:1015000060E070E08091810290918202D8C19837AA
:10151000B1F400E02FEF3FEFA90160E070E08091AF
:101520007F029091800223D52FEF3FEFA90160E069
:1015300070E0809181029091820219D59DCF9634FE
:1015400079F461E471E08EEB91E03DD8B7018AE077
:1015500034DDB70188E031DD60E089E0F0DD39C0DD
:10156000923499F469E471E08EEB91E02CD8B701E4
:1015700089E023DDB70187E020DD60E08AE0DFDD80
:1015800060E088E0DCDD198384C1923591F460E786
:1015900071E08EEB91E017D8B7018AE00EDD60E0D4
:1015A00088E0CDDD60E089E0CADDB70187E005DDD8
:1015B000EACF9C3489F467E671E08EEB91E003D8C2
:1015C00060E08AE0BCDDB70188E0F7DCB70189E0C4
:1015D000F4DC60E087E0D6CF973489F46EE471E004
:1015E0008EEB91E00E94E302B701F7FE02C06F5F4D
:1015F0007F4F759567958AE0E0DCB70112C099349A
:10160000C1F468E571E08EEB91E00E94E302B7015E
:101610008AE0D3DCB701F7FE02C06F5F7F4F75959C
:10162000679588E0CADC60E089E089DD60E087E0FA
:101630002CC0983489F463E671E08EEB91E00E944F
:10164000E302B701F7FE02C06F5F7F4F75956795A4
:1016500089E0B3DCB70112C09A34D9F46CE671E0CA
:101660008EEB91E00E94E302B70189E0A6DCB701AE
:10167000F7FE02C06F5F7F4F7595679587E09DDC31
:1016800060E08AE05CDD60E088E059DD81E089832C
:1016900000C1963511F461E003C0963721F460E093
:1016A0008BE04DDDE9CE903319F4E12CF12CE4CE42
:1016B0009133A1F41F921F921F929F92A12CB12CE3
:1016C00065011AE0E12EF12C00E010E020E030E0AE
:1016D000A90161E070E080E090E0C5C09233A1F420
:1016E0001F921F921F929F92A12CB12C65011AE0AC
:1016F000E12EF12C00E010E020E030E0A90162E0F2
:1017000070E080E090E0AFC09333A1F41F921F928D
:101710001F929F92A12CB12C65011AE0E12EF12CB1
:1017200000E010E020E030E0A90163E070E080E03C
:1017300090E099C09433A1F41F921F921F929F9240
:10174000A12CB12C65011AE0E12EF12C00E010E093
:1017500020E030E0A90164E070E080E090E083C028
:101760009533A1F41F921F921F929F92A12CB12C2E
:1017700065011AE0E12EF12C00E010E020E030E0FD
:10178000A90165E070E080E090E06DC09633A1F4BF
:101790001F921F921F929F92A12CB12C65011AE0FB
:1017A000E12EF12C00E010E020E030E0A90166E03D
:1017B00070E080E090E057C09733A1F41F921F9231
:1017C0001F929F92A12CB12C65011AE0E12EF12C01
:1017D00000E010E020E030E0A90167E070E080E088
:1017E00090E041C09833A1F41F921F921F929F92E4
:1017F000A12CB12C65011AE0E12EF12C00E010E0E3
:1018000020E030E0A90168E070E080E090E02BC0CB
:101810009933A1F41F921F921F929F92A12CB12C79
:1018200065011AE0E12EF12C00E010E020E030E04C
:10183000A90169E070E080E090E015C09137D1F433
:101840001F921F921F929F92A12CB12C65011AE04A
:10185000E12EF12C00E010E020E030E0A9016AE088
:1018600070E080E090E079DA7B010F900F900F90AC
:101870000F9002CE933529F560E08AE060DC60E0ED
:1018800088E05DDC60E089E05ADC60E087E057DCFE
:10189000198202E020E030E0A901BE016F5F7F4FB6
:1018A0008091850290918602CCD220E030E0A9019F
:1018B000BE016F5F7F4F8091830290918402C1D2FD
:1018C000DBCD66E771E08EEB91E00E94D8026A8181
:1018D0008EEB91E00E94F302CFCD40E061E08AE020
:1018E0007ED2909388028093870208952CE231E0A3
:1018F00040E050E068E871E085E00E9468036DE236
:1019000071E080E090E031D72CE231E040E050E03F
:1019100068E871E085E00E9468036DE271E080E0B4
:1019200090E023D72CE231E040E050E068E871E03D
:1019300085E00E9468036DE271E080E090E015D7D9
:1019400026E930E040E050E068E871E085E00E9480
:10195000680367E970E080E090E007D72CE231E0AF
:1019600040E050E068E871E085E00E9468036DE2C5
:1019700071E080E090E0F9D626E930E040E050E008
:1019800068E871E085E00E94680367E970E080E044
:1019900090E0EBD62CE231E040E050E068E871E006
:1019A00085E00E9468036DE271E080E090E0DDC6B2
:1019B00028E532E040E050E062E970E085E00E9416
:1019C000680369E572E080E090E0CFD628E532E078
:1019D00040E050E064EA70E085E00E94680369E559
:1019E00072E080E090E0C1D681DF2CE231E040E09F
:1019F00050E064EC70E085E00E9468036DE271E005
:101A000080E090E0B2D62CE231E040E050E064ECBF
:101A100070E085E00E9468036DE271E080E090E094
:101A2000A4D664DF2CE231E040E050E064EC70E0EA
:101A300085E00E9468036DE271E080E090E095D659
:101A40002CE231E040E050E064EC70E085E00E9480
:101A500068036DE271E080E090E087D647DF2CE21A
:101A600031E040E050E064EC70E085E00E94680303
:101A70006DE271E080E090E078D62CE231E040E069
:101A800050E064EC70E085E00E9468036DE271E074
:101A900080E090E06AD620EB34E040E050E061E77F
:101AA00071E085E00E94680361EB74E080E090E003
:101AB0005CD67ECFAF92BF92CF92DF92EF92FF9231
:101AC0000F9361E08AE0FFDA61E089E0FCDA61E02F
:101AD00088E0F9DA61E087E0F6DA61E08BE0F3DADA
:101AE00061E086E0F0DA61E08CE0EDDA61E08BE065
:101AF000EADA61E08DE0E7DA26E040E855E260E00E
:101B000070E08EEB91E00E945C01A12CB12CC12C05
:101B1000D12CE12CF12C03E025E030E044E650E04C
:101B200068E871E088ED9CE048D301E020E030E017
:101B300042E350E062E971E08BE199E03ED320E0BE
:101B400030E042E350E06BE971E083EC99E035D39B
:101B500005E020E030E042E350E062EA71E081E33A
:101B60009AE02BD304E020E030E044E650E06FEA56
:101B700071E089ED9DE021D300E020E030E0A90193
:101B800060E070E08091890290918A025AD10F91B1
:101B9000FF90EF90DF90CF90BF90AF9002C4089578
:101BA00043E060E081E01BD190938A028093890238
:101BB0000895CF93DF9300D000D01F92CDB7DEB74A
:101BC00019821A821B821C828EEB91E00E948A008D
:101BD000892BD1F08EEB91E00E94A4008D83682FB9
:101BE0008EEB91E00E94D90200E020E030E0A901F4
:101BF000BE016B5F7F4F809187029091880221D157
:101C00008EEB91E00E94F50042E350E060E070E06E
:101C1000CE01019643D5D8CF1F93CF93DF93EC012C
:101C2000142F88A181110BC088819981892B09F01B
:101C300041C08A819B817BD71B821A823CC0482F7E
:101C400050E0111115C08C819D810E94011928A1BD
:101C50008C819D81820F911D9D838C832A813B8184
:101C60008217930738F1888199819D838C8322C0E4
:101C70008E819F810E94011988A190E091958195A4
:101C800091092E813F81280F391F3F832E83488180
:101C900059812417350730F42A813B81820F931F25
:101CA0009F838E83123031F48E8D882319F08E8DB0
:101CB00081508E8F80E09E8D9F5F9E8FDF91CF91B0
:101CC0001F910895FC01CB0140A14423A1F050E0F5
:101CD00026813781240F351F3783268362817381E4
:101CE0002617370720F020813181378326836681CC
:101CF00077810C94011908950F931F93CF93DF936D
:101D0000EC010FB6F8940F928C010D5E1F4F9AA153
:101D100019165CF48B89882341F0C80104D681111F
:101D2000A3D69AA191509AA3F2CF8FEF8AA30F90D6
:101D30000FBE0FB6F8940F928E01085F1F4F99A146
:101D400019165CF48885882341F0C801ECD581110F
:101D50008BD699A1915099A3F2CF8FEF89A30F90C1
:101D60000FBEDF91CF911F910F910895CF93DF9315
:101D7000EC010FB6F8940F92288139819F8D48A10C
:101D8000949FC0011124F901E80FF91FFB83EA8336
:101D90001E8E3D832C83841B9109820F931F9F838A
:101DA0008E838FEF89A38AA361110BC08885882356
:101DB00081F0CE010896B7D5813059F40E944417BE
:101DC00008C0CE0108960E94F817CE0143960E94E3
:101DD000F8170F900FBE81E0DF91CF910895EF9239
:101DE000FF921F93CF93DF931F92CDB7DEB7182FCB
:101DF000662331F0869F90011124C901019602C02B
:101E000080E090E083966983DED67C01698100974B
:101E100081F0611104C0FC019183808304C083962A
:101E2000F70191838083F701178F60A361E0C701F9
:101E30009DDFC7010F90DF91CF911F91FF90EF9031
:101E40000895AF92BF92CF92DF92EF92FF920F93DD
:101E5000CF93DF93CDB7DEB729970FB6F894DEBFE7
:101E60000FBECDBF7C016B012E833F83488759870E
:101E700090E0570188E0A80EB11C0FB6F8940F92BD
:101E8000F701268D878D281710F00230A9F4402F16
:101E9000B601C701C1DEF7019389992339F0C70163
:101EA000439641D5813021F4EFD702C08111FCCF98
:101EB0000F900FBE81E04BC04E815F8168857985B0
:101EC000452B462B472B19F40F900FBE3FC09111A5
:101ED00003C0CE01019664D50F900FBEA1D20FB6FC
:101EE000F8940F92F70181A18F3F09F411A2F70135
:101EF00082A18F3F09F412A20F900FBEBE016A5F4C
:101F00007F4FCE0101965DD581111DC00FB6F894AB
:101F10000F92F701968D0F900FBE878D98130FC00B
:101F20004E815F8168857985C501D6D4C701E4DE1D
:101F30004AD3882311F091E0A0CFA6D7FCCFC701E8
:101F4000DBDE41D3F8CFC701D7DE3DD380E0299651
:101F50000FB6F894DEBF0FBECDBFDF91CF910F91CA
:101F6000FF90EF90DF90CF90BF90AF900895AF9229
:101F7000BF92CF92DF92EF92FF920F93CF93DF93B6
:101F8000CDB7DEB729970FB6F894DEBF0FBECDBF31
:101F90007C016B012E833F834887598790E057016E
:101FA00083E1A80EB11C0FB6F8940F92F701868D4D
:101FB000882361F1A680B780B601C70183DEF701EF
:101FC000011116C0868D8150868F80819181892B69
:101FD00021F4E7D5F70193838283F7018085882375
:101FE00089F0C70108969FD4813061F44DD70AC0AB
:101FF000B782A6828389882329F0C701439693D4A8
:102000008111F4CF0F900FBE81E056C04E815F81E9
:1020100068857985452B462B472B19F40F900FBE09
:102020004AC0911103C0CE010196BAD40F900FBEE1
:10203000F7D10FB6F8940F92F70181A18F3F09F401
:1020400011A2F70182A18F3F09F412A20F900FBED7
:10205000BE016A5F7F4FCE010196B3D4811128C0C3
:102060000FB6F8940F92F701868D0F900FBE811175
:102070001BC080819181892B41F40FB6F8940F9297
:1020800082819381F5D40F900FBE4E815F81688568
:102090007985C50121D4C7012FDE95D2882311F09F
:1020A00091E081CFF1D6FCCFC70126DE8CD2F8CFEC
:1020B000C70122DE88D280E029960FB6F894DEBFF1
:1020C0000FBECDBFDF91CF910F91FF90EF90DF90CA
:1020D000CF90BF90AF900895E091B402F091B50217
:1020E0008081811104C08FEF9FEFDC010EC0E09171
:1020F000B402F091B5020780F085E02D0084F185EF
:10210000E02D82819381A481B58180938C0290938C
:102110008D02A0938E02B0938F020895CF92DF922A
:10212000EF92FF92E0913A03F0913B036283738355
:1021300084839583C0909602D0909702E090980295
:10214000F09099026C157D058E059F0578F46091DD
:102150003A0370913B038091B2029091B3026E5F9B
:102160007F4FFF90EF90DF90CF9078C76B017C019D
:1021700060913A0370913B038091B4029091B50253
:102180006E5F7F4F6BD780918C0290918D02A091F2
:102190008E02B0918F02C816D906EA06FB0640F4FB
:1021A000C0928C02D0928D02E0928E02F0928F0249
:1021B000FF90EF90DF90CF9008955F926F927F92A3
:1021C0008F929F92AF92BF92CF92DF92EF92FF9247
:1021D0000F931F93CF93DF934C01162F572E5A0165
:1021E0003901C114D10431F4CA01EDD46C01892B39
:1021F00009F4C6C08CE290E0E6D4EC01009779F0D7
:10220000DC8ECB8E21E0A21AB108AC0CBD1CBC0147
:10221000635E7F4FE12FF52DCF01089606C0C60102
:1022200062D5AEC0E817F90749F09F014191DB0183
:102230004D93BD01D9012C912111F4CF1CA2102F77
:102240000A3008F019E01A8F1DA31EA26E01B2E039
:10225000CB0ED11CC601DDD6CE010E96DAD6DB87B9
:10226000CA878AE090E0A0E0B0E0811B9109A10953
:10227000B1098E879F87A88BB98BDF8BCE8B1FA26E
:1022800018A619A61AA61BA6A301B401C50155D507
:1022900099838883E114F10419F0F701D183C08395
:1022A0000FB6F8940F9280919A028F5F80939A02F2
:1022B00080913A0390913B03892B79F5D0933B03AE
:1022C000C0933A0380919A028130B1F58CECE82EEC
:1022D00082E0F82EC7018CD6FBE0EF0EF11C2AE35A
:1022E000E21623E0F206B1F781EC92E081D686EBAC
:1022F00092E07ED687EA92E07BD68CE992E078D6AF
:1023000081EC92E09093B5028093B40286EB92E068
:102310009093B3028093B2020FC080919402811116
:102320000BC0E0913A03F0913B03828D081720F037
:10233000D0933B03C0933A03809190028F5F8093C8
:1023400090028A8D90919502981710F480939502CF
:10235000ABE08A9FC0011124B60184539D4F5DD626
:102360000F900FBE80919402882341F0E0913A03D0
:10237000F0913B03828D801708F486D581E001C07F
:102380008FEFDF91CF911F910F91FF90EF90DF9032
:10239000CF90BF90AF909F908F907F906F905F9005
:1023A0000895AF92BF92CF92DF92EF92FF920F9378
:1023B000A12CB12CC12CD12CE12CF12C00E020E07F
:1023C00030E045E550E069EB71E082EF93E1F5DE46
:1023D0008130F1F4F8944FEF5FEFBA0140938C0233
:1023E00050938D0260938E0270938F0280939402BB
:1023F00010929602109297021092980210929902EF
:102400000F91FF90EF90DF90CF90BF90AF9001C5FC
:102410000F91FF90EF90DF90CF90BF90AF90089515
:1024200080918B028F5F80938B0208958F929F9291
:10243000AF92BF92EF92FF920F931F93CF93DF93D0
:1024400080918B028111A9C0809196029091970290
:10245000A0919802B09199020196A11DB11D80939F
:10246000960290939702A0939802B093990280905D
:10247000960290909702A0909802B09099028114D1
:102480009104A104B104B1F48091B4029091B50219
:102490002091B2023091B3023093B5022093B4027E
:1024A0009093B3028093B202809191028F5F8093E8
:1024B000910212DE80918C0290918D02A0918E0289
:1024C000B0918F02C0E088169906AA06BB0608F4F0
:1024D00054C0DBE0E091B402F091B502808181113B
:1024E00004C08FEF9FEFDC0113C0E091B402F091C4
:1024F000B5020780F085E02D00851185F801828105
:102500009381A481B58188169906AA06BB0648F472
:1025100080938C0290938D02A0938E02B0938F02D1
:102520002CC07801F2E0EF0EF11CC701DBD5D80119
:1025300058968D919C915997892B19F0C8010E9648
:10254000D1D5F801928D80919502891710F490935E
:102550009502D99FC0011124B70184539D4F5DD5C9
:10256000E0913A03F0913B03D8015A969C91828DF9
:10257000981708F4AFCFC1E0ADCFE0913A03F091E6
:102580003B03E28DBBE0EB9FF0011124E453FD4FD0
:102590008081823040F0C1E006C0809193028F5F5D
:1025A00080939302C0E0809192028111C1E08C2F50
:1025B000DF91CF911F910F91FF90EF90BF90AF905F
:1025C0009F908F900895EF92FF920F931F93CF9358
:1025D000DF930FB6F8940F9280918B028150809315
:1025E0008B0280918B02882311F080E04EC0809195
:1025F0009A028823D1F38BE0F82EEE24E3948091A5
:10260000A702882339F1E091AE02F091AF02C085B4
:10261000D185CE010E9666D58E010E5F1F4FC80183
:1026200061D59A8D80919502891710F49093950247
:10263000F99EC0011124B80184539D4FEED4E0915E
:102640003A03F0913B039A8D828D9817C0F2E09285
:102650009202D5CF80919302811108C0809192029D
:10266000813009F0C2CF10D481E00FC0C1E0809169
:102670009302882399F3DADE8111C093920280914C
:102680009302815080939302F2CF0F900FBEDF919F
:10269000CF911F910F91FF90EF900895AF92BF924D
:1026A000CF92DF92EF92FF920F931F93CF93DF931E
:1026B00000D000D0CDB7DEB75C0149835A836B836D
:1026C0007C83AEDE009196021091970220919802D1
:1026D00030919902F50180819181A281B381498174
:1026E0005A816B817C816C017D01C40ED51EE61E72
:1026F000F71E081719072A073B0730F4C816D90632
:10270000EA06FB0660F405C0C816D906EA06FB0611
:1027100040F091E00C151D052E053F0518F090E0E6
:1027200001C091E0F501C082D182E282F382992357
:1027300049F080913A0390913B030296D3D4C701AC
:10274000B601ECDC40DF811101C09ED30F900F90E9
:102750000F900F90DF91CF911F910F91FF90EF900D
:10276000DF90CF90BF90AF900895CF92DF92EF921D
:10277000FF92CF93DF9300D000D0CDB7DEB76115C5
:1027800071058105910511F47FD321C069837A8396
:102790008B839C8345DEC0909602D0909702E09098
:1027A0009802F090990269817A818B819C81C60E92
:1027B000D71EE81EF91E80913A0390913B030296C2
:1027C00091D4C701B601AADCFEDE8823E9F20F909E
:1027D0000F900F900F90DF91CF91FF90EF90DF90CF
:1027E000CF90089580919B02882321F119DEC0913A
:1027F0009C02E9DECC23B1F30FB6F8940F92E0917E
:10280000A302F091A402C085D185CE0102966AD4BC
:1028100080919A02815080939A0280919B0281500C
:1028200080939B020F900FBE8B8D9C8D5CD2CE014E
:102830005AD2D8CF8091CC028230A0F225D3D2CF09
:1028400080918B02882321F081E080939202089589
:10285000109292029BE0E09195029E9FF00111245C
:10286000E453FD4F8081811106C080919502815013
:1028700080939502F0CF8091950290E04BE0489FC5
:102880009001499F300D1124F901E453FD4FA181BE
:10289000B28114960D90BC91A02DB283A1832153D7
:1028A0003D4FA217B30731F414962D913C91159723
:1028B000328321832BE0289FF001299FF00D112402
:1028C000E453FD4F0180F281E02D80859185909346
:1028D0003B0380933A030895CF92DF92EF92FF92E9
:1028E0006A017B0120913A0330913B03B901625F99
:1028F0007F4FB4D380913A0390913B030296F2D379
:102900008091960290919702A0919802B0919902BD
:10291000BC01CD016C0D7D1D8E1D9F1DFF90EF90A4
:10292000DF90CF90FBCB0F931F93CF93DF93DC010E
:102930001796ED91FC911897C085D1858E01025FA5
:102940001F4FC801CFD380918B02811113C00C504F
:102950001109C801C7D39A8D80919502891710F487
:1029600090939502BBE09B9FC0011124B801845352
:102970009D4F03C0B80187EA92E04FD3E0913A033C
:10298000F0913B039A8D828D891720F481E080932A
:10299000920201C080E0DF91CF911F910F910895C5
:1029A00020919102FC012083409196025091970260
:1029B000609198027091990241835283638374837A
:1029C00008958F929F92AF92BF92CF92DF92EF9233
:1029D000FF920F931F93FB010FB6F8940F92C090D4
:1029E0009602D0909702E0909802F0909902309170
:1029F0009102DC012C9111964D915D916D917C912C
:102A00001497321729F0C416D506E606F706F0F437
:102A1000008111812281338146015701841A950A70
:102A2000A60AB70A80169106A206B30678F44C19D6
:102A30005D096E097F09400F511F621F731F40839C
:102A4000518362837383ACDF80E001C081E00F902B
:102A50000FBE1F910F91FF90EF90DF90CF90BF902E
:102A6000AF909F908F90089581E080939202089597
:102A70000F931F93CF93DF93FC01892B09F452C06E
:102A8000828DA0913A03B0913B035A969C9189178D
:102A900008F048C0468557856089718977FD12C066
:102AA000A0913A03B0913B035A969C914AE050E0C2
:102AB00060E070E0491B5109610971094687578739
:102AC000608B718B2BE0829FC001112484539D4F3A
:102AD0002485358528173907F1F48F01EF012296F7
:102AE000CE0100D3E0913A03F0913B03928DF801BF
:102AF000928F80919502891710F490939502FBE0D4
:102B00009F9FC0011124BE0184539D4FDF91CF913F
:102B10001F910F9182C2A0913A03B0913B035A9644
:102B20008C91828FDF91CF911F910F9108950F9318
:102B30001F93CF93DF93FC01892B11F480E02CC00D
:102B400086A1815086A3228D95A12917B9F3811101
:102B5000F5CFEF018F010E5F1F4FC801C3D29DA1BA
:102B60009A8F4AE050E060E070E0491B510961092A
:102B700071094E875F87688B798B809195028917E1
:102B800010F4909395022BE0929FC0011124B8019C
:102B900084539D4F42D281E0DF91CF911F910F91DD
:102BA000089580913A0390913B03892B39F0E0918D
:102BB0003A03F0913B0386A18F5F86A380913A038D
:102BC00090913B0308950F931F93CF93DF93EC01F4
:102BD00027DC80913C03811121C086E493E090932F
:102BE00042038093410310924403109243038BED00
:102BF00095E09093400380933F0310923E03109220
:102C00003D0390934903809348038DE393E09093B1
:102C100047038093460381E080933C03209709F0AB
:102C20002496CE0101978A3D954008F053C0E0916B
:102C30004103F0914203A1E4B3E0828193818C17B8
:102C40009D0728F023E0ED33F20749F443C02081CB
:102C5000318121153105B1F3DF01F901EECF0D917D
:102C60001C9111970C5F1F4F208131812D933C9354
:102C70008C1B9D0B8930910500F1DF01AC0FBD1F4E
:102C800013969C938E931297D383C28312962D91A1
:102C90003C91139761E473E0EB0188819981EC0129
:102CA0004A815B814217530710F4BC01F5CF11969E
:102CB0009C938E93EB01B983A88380910501909139
:102CC000060122813381821B930B9093060180932E
:102CD000050102C000E010E076DCC801DF91CF9171
:102CE0001F910F910895CF93DF93009719F1EC0195
:102CF000249796DB8A819B81E1E4F3E0A081B18196
:102D000012962D913C9113972817390710F4FD0165
:102D1000F5CFB983A883D183C08320910501309179
:102D20000601820F931F9093060180930501DF91A6
:102D3000CF9149CCDF91CF91089531E1FC013083EF
:102D4000319722E220833197A3E3A08331976083F8
:102D50003197708331971082319760E860833197A3
:102D60001082319762E06083319763E0608331972E
:102D700064E06083319765E06083319766E060834B
:102D8000319767E06083319768E06083319769E04D
:102D90006083319760E1608331973083319732E10E
:102DA0003083319733E13083319734E13083319789
:102DB00035E13083319736E13083319737E1308325
:102DC000319738E13083319739E13083319730E200
:102DD0003083319731E2308331972083319723E27A
:102DE00020833197408331975083319726E22083A7
:102DF000319727E22083319728E22083319729E217
:102E00002083319720E32083319721E32083869725
:102E1000089589E08093890083EC809388008BE09B
:102E200080938100EFE6F0E0808182608083A09152
:102E30003A03B0913B03CD91CDBFDD91DEBFFF9151
:102E4000EF91DF91CF91BF91AF919F918F917F9142
:102E50006F915F914F913F912F911F910F91FF9033
:102E6000EF90DF90CF90BF90AF909F908F907F902A
:102E70006F905F904F903F902F901F900F900FBEDC
:102E80000F90089581E008950F920FB6F8940F9275
:102E90001F9211242F923F924F925F926F927F92D6
:102EA0008F929F92AF92BF92CF92DF92EF92FF925A
:102EB0000F931F932F933F934F935F936F937F9342
:102EC0008F939F93AF93BF93CF93DF93EF93FF9332
:102ED000A0913A03B0913B030DB60D920EB60D9240
:102EE000AFDCA0913A03B0913B03CD91CDBFDD9112
:102EF000DEBFFF91EF91DF91CF91BF91AF919F9195
:102F00008F917F916F915F914F913F912F911F9181
:102F10000F91FF90EF90DF90CF90BF90AF909F9078
:102F20008F907F906F905F904F903F902F901F9069
:102F30000F900FBE0F9008950F920FB6F8940F9256
:102F40001F9211242F923F924F925F926F927F9225
:102F50008F929F92AF92BF92CF92DF92EF92FF92A9
:102F60000F931F932F933F934F935F936F937F9391
:102F70008F939F93AF93BF93CF93DF93EF93FF9381
:102F8000A0913A03B0913B030DB60D920EB60D928F
:102F90004DDA811155DCA0913A03B0913B03CD91FC
:102FA000CDBFDD91DEBFFF91EF91DF91CF91BF915A
:102FB000AF919F918F917F916F915F914F913F91D1
:102FC0002F911F910F91FF90EF90DF90CF90BF90C6
:102FD000AF909F908F907F906F905F904F903F90B9
:102FE0002F901F900F900FBE0F900895A5DF18959A
:102FF000FC010396928381834FEF5FEFBA01438315
:103000005483658376839087878392878187108234
:103010000895FC01138612860895CF93DF939C01D7
:10302000FB01DC011196CD91DC911297D583C4830D
:103030008E819F81978386838E819F81DC01159687
:103040007C936E9314977F836E8333872287F90175
:1030500080818F5F8083DF91CF910895EF92FF92FF
:103060000F931F93CF93DF937C01FB01408151812C
:10307000628173814F3F8FEF58076807780721F40B
:10308000E701A985BA8512C0D701139614968D91D0
:103090009C911597EC01088119812A813B81401789
:1030A00051076207730710F0DC01F0CF14968D9181
:1030B0009C91159795838483EC01FF83EE83B783FE
:1030C000A6831596FC93EE931497F386E286F70198
:1030D00080818F5F8083DF91CF911F910F91FF904F
:1030E000EF900895CF93DF93FC01A285B38584818F
:1030F000958126813781EC013F832E83C681D7815C
:103100009D838C8311968D919C9112978E179F07AA
:1031100021F41296DC93CE931197138612868C912C
:1031200081508C93DF91CF910895DB018F939F9312
:1031300049D0BF91AF91A29F800D911DA39F900D8B
:10314000B29F900D11240895A1E21A2EAA1BBB1B59
:10315000FD010DC0AA1FBB1FEE1FFF1FA217B30763
:10316000E407F50720F0A21BB30BE40BF50B661F79
:10317000771F881F991F1A9469F76095709580953D
:1031800090959B01AC01BD01CF010895052E97FBE1
:1031900016F400940FD057FD05D0D6DF07FC02D0FF
:1031A00046F408C050954095309521953F4F4F4FBC
:1031B0005F4F089590958095709561957F4F8F4FE3
:1031C0009F4F08950FD0A59F900DB49F900DA49F81
:1031D000800D911D11240895EE0FFF1F0590F491AD
:1031E000E02D0994A29FB001B39FC001A39F700D71
:1031F000811D1124911DB29F700D811D1124911DFF
:103200000895FB01DC0102C001900D924150504035
:08321000D8F70895F894FFCFF0
:10321800FF5E065E06DB050000000016019802B896
:1032280000F5008A00A4009600000000004E020D80
:103238000A006E616E00696E66006F766600646FE4
:103248006573207468697320657865637574653F74
:1032580000464F5257415244004241434B004652A8
:103268004F4E544C4546540046524F4E54524947CF
:103278004854004241434B4C454654004241434B5D
:10328800524947485400496E76616C696420636FFF
:103298006D6D616E643A20004261627953686172B3
:1032A8006B00677265656E4C4544007265644C45F9
:1032B80044006D6F76656D656E747461736B006242
:0E32C8006C7565746F6F74680049444C450066
:00000001FF
