:1000000061C00000F5C300001AC4000082C00000F7
:1000100080C000007EC000007CC000008DC30000D6
:1000200078C0000076C0000074C000000C94C817AF
:1000300070C000006EC000006CC000006AC000000C
:1000400074C4000066C000009CC10000CCC1000068
:1000500060C000005EC000005CC000005AC000002C
:1000600058C0000056C00000020000000800020155
:10007000000003040700000000000000000102046B
:10008000081020408001020408102001020408101A
:100090002004040404040404040202020202020311
:1000A000030303030300000000250028002B0000C9
:1000B000000000240027002A000021028D02D6093A
:1000C000C60A210D11241FBECFEFD8E0DEBFCDBF81
:1000D00011E0A0E0B1E0ECEBF1E302C005900D927D
:1000E000A43AB107D9F729E0A4EAB1E001C01D9212
:1000F000A630B207E1F710E0C2E6D0E004C02197D5
:10010000FE010E94BE18CD35D107C9F702D40C9468
:10011000DC1876CFFC01918D228D892F90E0805CD8
:100120009F4F821B91098F7399270895FC01918D30
:10013000828D981731F0828DE80FF11D858D90E04A
:1001400008958FEF9FEF0895FC01918D828D981790
:1001500061F0828DDF01A80FB11D5D968C91928DAB
:100160009F5F9F73928F90E008958FEF9FEF0895A8
:10017000FC01538D448D252F30E0842F90E0821BAD
:10018000930B541710F0CF9608950197089588E1C6
:1001900092E0892B41F080E090E0892B21F048D15A
:1001A00081110C9400000895FC01848DDF01A80FDB
:1001B000B11DA35ABF4F2C91848D90E001968F738F
:1001C0009927848FA689B7892C93A089B1898C91AE
:1001D00080648C93938D848D981306C00288F38974
:1001E000E02D80818F7D80830895CF93DF93EC0194
:1001F000888D8823C1F0EA89FB89808185FD05C04F
:10020000A889B9898C9186FD0EC00FB607FCF5CF81
:10021000808185FFF2CFA889B9898C9185FFEDCFC8
:10022000CE01C2DFE8CFDF91CF910895EF92FF9228
:100230000F931F93CF93DF93EC0181E0888F9B8D09
:100240008C8D981305C0E889F989808185FD23C0CC
:10025000F62E0B8D10E00F5F1F4F0F731127E02E4E
:100260008C8DE8120BC00FB607FCFACFE889F9892C
:10027000808185FFF5CFCE0197DFF2CF8B8DFE0118
:10028000E80FF11DE35AFF4FF0820B8FEA89FB89DB
:100290008081806207C0EE89FF896083E889F989DF
:1002A00080818064808381E090E0DF91CF911F9115
:1002B0000F91FF90EF900895CF92DF92EF92FF920F
:1002C0001F93CF93DF93EC016A017B01122FE88922
:1002D000F98982E080834115514E61057105B1F0C5
:1002E00060E079E08DE390E0A70196010E94761826
:1002F000DA01C9010197A109B109B695A7959795AA
:100300008795AC01411580E15807A8F0E889F98983
:10031000108260E874E88EE190E0A70196010E94E7
:100320007618BA01A9014150510961097109769500
:10033000679557954795EC85FD855083EE85FF853C
:100340004083188EEC89FD891083EA89FB898081BE
:1003500080618083EA89FB89808188608083EA8963
:10036000FB89808180688083EA89FB8980818F7D19
:100370008083DF91CF911F91FF90EF90DF90CF901E
:1003800008951F920F920FB60F9211242F938F93FF
:100390009F93EF93FF93E091B401F091B5018081B9
:1003A000E091BA01F091BB0182FD12C09081809171
:1003B000BD018F5F8F732091BE01821751F0E091D4
:1003C000BD01F0E0EC55FE4F958F8093BD0101C05B
:1003D0008081FF91EF919F918F912F910F900FBE90
:1003E0000F901F9018951F920F920FB60F92112425
:1003F0002F933F934F935F936F937F938F939F932D
:10040000AF93BF93EF93FF9384EA91E0CDDEFF912A
:10041000EF91BF91AF919F918F917F916F915F917C
:100420004F913F912F910F900FBE0F901F901895F5
:1004300084EA91E06FDE21E0892B09F420E0822F2D
:100440000895E4EAF1E01382128288EE93E0A0E0DE
:10045000B0E084839583A683B7838BE091E091839A
:10046000808385EC90E09587848784EC90E0978783
:10047000868780EC90E0918B808B81EC90E0938B71
:10048000828B82EC90E0958B848B86EC90E0978B4E
:10049000868B118E128E138E148E08958F929F92DA
:1004A000AF92BF92CF92DF92EF92FF920F931F9382
:1004B000CF93DF937C018B016C0182E0C80ED11CCD
:1004C0004701E5E08E0E911CC0E0D0E0F60161919D
:1004D0006F014AE050E0C801F5D05C016EE2C8014E
:1004E00068D08A0D9B1DC80FD91FC814D90471F795
:1004F0004AE050E0F7016581C801E4D08C0F9D1FF0
:10050000DF91CF911F910F91FF90EF90DF90CF90EF
:10051000BF90AF909F908F900895E1E4F2E08DE15D
:1005200091E0918380831282138214821582089550
:10053000CF92DF92EF92FF920F931F93CF93DF93AF
:100540006C017A018B01C0E0D0E0CE15DF0589F0A7
:10055000D8016D918D01D601ED91FC910190F08152
:10056000E02DC6010995892B11F47E0102C0219668
:10057000ECCFC701DF91CF911F910F91FF90EF90CA
:10058000DF90CF9008956115710579F0FB0101901E
:100590000020E9F73197AF01461B570BDC01ED91C5
:1005A000FC910280F381E02D099480E090E00895B1
:1005B000EACFDC01ED91FC910190F081E02D0994EE
:1005C0006FE171E0E0CF0F931F93CF93DF93EC01C6
:1005D000DADF8C01CE01F4DF800F911FDF91CF9124
:1005E0001F910F9108950F931F93CF93DF93EC0109
:1005F000E0DF8C01CE01E4DF800F911FDF91CF910E
:100600001F910F9108958F929F92AF92BF92CF92B8
:10061000DF92EF92FF920F931F93CF93DF93CDB7AB
:10062000DEB7A1970FB6F894DEBF0FBECDBF7C0139
:10063000D42EC52EDB0119A2223008F42AE08E0147
:100640000F5D1F4F822E912CA12CB12C6D2D7C2D76
:10065000CD01A50194010E947618D22EC32EDA0195
:10066000015011096A3071058105910510F4605D32
:1006700001C0695CF8016083232B242B252B31F703
:10068000B801C70180DFA1960FB6F894DEBF0FBE98
:10069000CDBFDF91CF911F910F91FF90EF90DF9031
:1006A000CF90BF90AF909F908F9008952115310506
:1006B00041F4DC01ED91FC910190F081E02D642F7B
:1006C0000994A1CF9A01462F50E060E070E0EECF90
:1006D000813039F018F0823051F0089510926E0098
:1006E000089580916F008D7F80936F0008958091B1
:1006F00070008D7F8093700081E08093B0008091C6
:10070000B100887F84608093B1001092B300089597
:10071000CF93C82F809100018C1307C0E8E6F0E06A
:10072000E4918FEF8093000101C0EFEF8E2FD0DFB7
:1007300060E08C2FCF91B5C21F920F920FB60F922F
:1007400011242F933F934F935F936F937F938F93D6
:100750009F93AF93BF93EF93FF9380914A02909141
:100760004B02A0914C02B0914D02892B8A2B8B2B0E
:1007700051F180914702E0914802F0914902908145
:100780008927808380914A0290914B02A0914C026C
:10079000B0914D02181619061A061B06BCF480917A
:1007A0004A0290914B02A0914C02B0914D020197E8
:1007B000A109B10980934A0290934B02A0934C0285
:1007C000B0934D0203C080910001A2DFFF91EF9131
:1007D000BF91AF919F918F917F916F915F914F9159
:1007E0003F912F910F900FBE0F901F901895089575
:1007F0001F920F920FB60F9211242F933F934F9396
:100800005F936F937F938F939F93AF93BF93EF9378
:10081000FF93E0910101F09102010995FF91EF91A1
:10082000BF91AF919F918F917F916F915F914F9108
:100830003F912F910F900FBE0F901F9018951F9210
:100840000F920FB60F9211242F933F934F935F9304
:100850006F937F938F939F93AF93BF93EF93FF9388
:10086000E0910301F09104010995FF91EF91BF918F
:10087000AF919F918F917F916F915F914F913F9138
:100880002F910F900FBE0F901F9018954F925F926F
:100890006F927F92AF92BF92CF92DF92EF92FF92D0
:1008A0000F931F93CF93DF93CDB7DEB729013A01A2
:1008B0009B01AC01241935094609570989899A8990
:1008C000AB89BC89BC01CD016A197B098C099D09E2
:1008D0000E946718A801970124193509460957098C
:1008E0000E949818CA01B9016A0D7B1D8C1D9D1DBF
:1008F000DF91CF911F910F91FF90EF90DF90CF90FC
:10090000BF90AF907F906F905F904F900895089543
:100910000895CAD0FDDF0E942A0DC7ECD0E00E94E6
:100920008A0D2097E1F333DCFACF1F920F920FB6B6
:100930000F9211242F933F938F939F93AF93BF9365
:1009400080914F0290915002A0915102B0915202B9
:1009500030914E0223E0230F2D3720F40196A11D84
:10096000B11D05C026E8230F0296A11DB11D2093DD
:100970004E0280934F0290935002A0935102B09385
:1009800052028091530290915402A0915502B0916D
:1009900056020196A11DB11D8093530290935402FB
:1009A000A0935502B0935602BF91AF919F918F9142
:1009B0003F912F910F900FBE0F901F9018952FB75A
:1009C000F89460914F027091500280915102909181
:1009D00052022FBF08953FB7F8948091530290912F
:1009E0005402A0915502B091560226B5A89B05C0AD
:1009F0002F3F19F00196A11DB11D3FBFBA2FA92F9E
:100A0000982F8827820F911DA11DB11DBC01CD011A
:100A100042E0660F771F881F991F4A95D1F7089506
:100A20008F929F92AF92BF92CF92DF92EF92FF92FE
:100A30006B017C01D0DF4B015C01C114D104E104E6
:100A4000F104F1F064DFC7DFDC01CB0188199909FB
:100A5000AA09BB09883E9340A105B10570F321E0C6
:100A6000C21AD108E108F10888EE880E83E0981ECA
:100A7000A11CB11CC114D104E104F10421F7DDCFA4
:100A8000FF90EF90DF90CF90BF90AF909F908F90AE
:100A900008958230910538F0880F991F880F991FAB
:100AA00005970197F1F70895789484B5826084BD25
:100AB00084B5816084BD85B5826085BD85B5816062
:100AC00085BDEEE6F0E0808181608083E1E8F0E0C2
:100AD0001082808182608083808181608083E0E8F1
:100AE000F0E0808181608083E1EBF0E080818460D0
:100AF0008083E0EBF0E0808181608083EAE7F0E0D2
:100B00008081846080838081826080838081816035
:100B100080838081806880831092C10008951F9334
:100B2000CF93DF93182FEB0161E07FD0209711F472
:100B300060E004C0CF3FD10531F461E0812FDF9147
:100B4000CF911F91AEC0E12FF0E0E759FF4FE49144
:100B5000E330F9F048F4E130B9F0E230A1F584B5C2
:100B6000806284BDC8BD34C0E730E9F0E83019F1D7
:100B7000E43049F580918000806280938000D093BA
:100B80008B00C0938A0024C084B5806884BDC7BD33
:100B90001FC080918000806880938000D09389007E
:100BA000C093880015C08091B00080688093B00029
:100BB000C093B3000DC08091B00080628093B000FC
:100BC000C093B40005C0C038D1050CF0B6CFB0CF8B
:100BD000DF91CF911F910895833081F028F4813007
:100BE00099F08230A1F008958730A9F08830B9F0EB
:100BF0008430D1F4809180008F7D03C0809180008B
:100C00008F7780938000089584B58F7702C084B574
:100C10008F7D84BD08958091B0008F7703C080914F
:100C2000B0008F7D8093B0000895CF93DF9390E064
:100C3000FC01E358FF4F2491FC01EF56FF4F8491D4
:100C4000882361F190E0880F991FFC01E155FF4F67
:100C5000C591D491FC01EB55FF4FA591B491611161
:100C600009C09FB7F8948881209582238883EC91EE
:100C70002E230BC0623061F49FB7F8943881822F25
:100C8000809583238883EC912E2B2C939FBF06C0E5
:100C90008FB7F894E8812E2B28838FBFDF91CF91F7
:100CA00008951F93CF93DF93282F30E0F901E75980
:100CB000FF4F8491F901E358FF4FD491F901EF56AA
:100CC000FF4FC491CC23C1F0162F811185DFEC2F8B
:100CD000F0E0EE0FFF1FEB55FF4FA591B4918FB7DA
:100CE000F894111105C09C91ED2FE095E92302C005
:100CF000EC91ED2BEC938FBFDF91CF911F91089575
:100D0000BF92CF92DF92EF92FF920F931F93CF93F8
:100D1000DF93C82ED62EB42EC7E0D0E0022F10E00D
:100D200087E0E82EF12CB11005C0C7018C1B9D0B8C
:100D3000980102C098018C2F02C0359527958A959D
:100D4000E2F7B901617077278C2DABDF61E08D2D63
:100D5000A8DF60E08D2DA5DF219728F7DF91CF91E7
:100D60001F910F91FF90EF90DF90CF90BF9008956B
:100D70004F925F926F927F928F929F92AF92BF92AB
:100D8000CF92DF92EF92FF92CF93C82F7B014A015F
:100D900016DE2B013C01970140E050E060E271EA71
:100DA00087E090E00E94981869017A0161E08C2F39
:100DB0003CDFA12CB12C03DEDC01CB0184199509A9
:100DC000A609B70988159905AA05BB0558F461E07D
:100DD0008C2F67DFC6015DDE60E08C2F62DFC6010D
:100DE00058DEE9CF60E08C2FCF91FF90EF90DF903D
:100DF000CF90BF90AF909F908F907F906F905F90BB
:100E00004F9013CF44E650E064E972E082E0B0DF37
:100E100066E970E080E090E003DE44E650E064E9DB
:100E200072E082E0A5DF6CE271E080E090E0F8DD46
:100E300044E650E064E972E082E09ADF6CE271E03F
:100E400080E090E0EDDD44E650E06EEF71E082E09E
:100E50008FDF64E670E080E090E0E2DD44E650E0A1
:100E600064E972E082E084DF6CE271E080E090E0AF
:100E7000D7DD44E650E062E073E082E079DF66E2CD
:100E800072E080E090E0CCDD44E650E06CE771E099
:100E900082E06EDF6FE372E080E090E0C1CD44E677
:100EA00050E064E972E089E063DF66E970E080E0C9
:100EB00090E0B6DD44E650E064E972E089E058DF96
:100EC0006CE271E080E090E0ABDD44E650E064E984
:100ED00072E089E04DDF6CE271E080E090E0A0DD3F
:100EE00044E650E06EEF71E089E042DF64E670E0D6
:100EF00080E090E095DD44E650E064E972E089E04E
:100F000037DF6CE271E080E090E08ADD44E650E09B
:100F100062E073E089E02CDF66E272E080E090E05E
:100F20007FDD44E650E06CE771E089E021DF6FE3AC
:100F300072E080E090E074DD44E650E06EEF71E036
:100F400089E016DF62EC71E080E090E069DD44E664
:100F500050E06CE771E089E00BDF60E971E080E070
:100F600090E05EDD44E650E060E471E089E000DF9F
:100F700064EF71E080E090E053DD44E650E068EB20
:100F800071E089E0F5DE6CE271E080E090E048DD40
:100F900040E550E060EE71E089E0EADE6AE471E08D
:100FA00080E090E03DDD44E650E062EC71E089E0F5
:100FB000DFDE66E970E080E090E032DD44E650E09C
:100FC0006EEA71E089E0D4DE6CE271E080E090E0EE
:100FD00027DD44E650E06CE771E089E0C9DE68ECAB
:100FE00070E080E090E01CDD40E550E064E972E0F4
:100FF00089E0BEDE68EC70E080E090E011DD42E365
:1010000050E068EF72E089E0B3DE66E970E080E00E
:1010100090E006DD44E650E06CE573E089E0A8DE90
:101020006CE271E080E090E0FBDC40E550E06CEBCE
:1010300072E089E09DDE66E970E080E090E0F0DC3F
:1010400042E350E068EF72E089E092DE6EE571E025
:1010500080E090E0E5DC40E550E064E972E089E0A2
:1010600087DE6CE271E080E090E0DADC40E550E0A1
:1010700068E072E089E07CDE66E970E080E090E0A4
:10108000CFDC40E550E064E472E089E071DE66E9BF
:1010900070E080E090E0C4DC40E550E060EE71E09C
:1010A00089E066DE64EF71E080E090E0B9DC44E660
:1010B00050E06EEF71E089E05BDE62EC71E080E0B1
:1010C00090E0AEDC44E650E06CE771E089E050DE91
:1010D00060E971E080E090E0A3DC44E650E060E489
:1010E00071E089E045DE64EF71E080E090E098DC3B
:1010F00044E650E068EB71E089E03ADE6CE271E0D2
:1011000080E090E08DDC40E550E060EE71E089E049
:101110002FDE6AE471E080E090E082DC44E650E09B
:1011200062EC71E089E024DE66E970E080E090E046
:1011300077DC44E650E06EEA71E089E019DE6CE2AB
:1011400071E080E090E06CDC44E650E06CE771E038
:1011500089E00EDE68EC70E080E090E061DC40E564
:1011600050E064E972E089E003DE68EC70E080E062
:1011700090E056DC42E350E068EF72E089E0F8DD91
:1011800066E970E080E090E04BDC44E650E06CE51E
:1011900073E089E0EDDD6CE271E080E090E040DC3E
:1011A00040E550E06CEB72E089E0E2DD66E970E07A
:1011B00080E090E035DC42E350E068EF72E089E0E7
:1011C000D7DD6EE571E080E090E02ADC40E550E09C
:1011D00064E972E089E0CCDD6CE271E080E090E0EF
:1011E0001FDC40E550E068E072E089E0C1DD66E9BF
:1011F00070E080E090E014DC40E550E064E472E0F0
:1012000089E0B6DD66E970E080E090E009DC40E569
:1012100050E060EE71E089E0ABDD64EF71E080E00A
:1012200090E0FECB4DE750E068E871E082E0A0DDA1
:101230006EE770E080E090E00E946C134DE750E0B4
:1012400068E871E082E094DD6EE770E080E090E0B5
:101250000E946C134DE750E068E871E082E088DDA1
:101260006EE770E080E090E00E946C134EE350E087
:1012700068E871E082E07CDD6FE370E080E090E0A0
:101280000E946C134DE750E068E871E082E070DD89
:101290006EE770E080E090E00E946C134EE350E057
:1012A00068E871E082E064DD6FE370E080E090E088
:1012B0000E946C134DE750E068E871E082E058DD71
:1012C0006EE770E080E090E00C946C134AEF50E021
:1012D00062E970E082E04CDD6BEF70E080E090E06E
:1012E0000E946C134AEF50E064EA70E082E040DD57
:1012F0006BEF70E080E090E00E946C1393DF4DE7AD
:1013000050E064EC70E082E033DD6EE770E080E096
:1013100090E00E946C134DE750E064EC70E082E0D6
:1013200027DD6EE770E080E090E00E946C137ADFCA
:101330004DE750E064EC70E082E01ADD6EE770E0AB
:1013400080E090E00E946C134DE750E064EC70E0A8
:1013500082E00EDD6EE770E080E090E00E946C13AA
:1013600061DF4DE750E064EC70E082E001DD6EE7A4
:1013700070E080E090E00E946C134DE750E064EC78
:1013800070E082E0F5DC6EE770E080E090E00E94C3
:101390006C1344EF51E061E771E082E0E9DC65EF56
:1013A00071E080E090E00E946C1390CF40E061E03B
:1013B00081E0C7D490935A028093590243E060E0E1
:1013C00081E0BFD490935802809357020895CF9341
:1013D000DF931F92CDB7DEB7282F60E08CE0298322
:1013E00060DC298140E06DE08BE08ADC61E08CE02C
:1013F0000F90DF91CF9155CCCF93DF931F92CDB754
:10140000DEB7198211E080E8C82ED12C00E020E080
:1014100030E0A901BE016F5F7F4F80915F02909124
:10142000600258D5E0915D02F0915E02882309F4D4
:101430007DC02FEF3FEFA90160E070E0CF014AD5FA
:10144000813021F780E0C3DF68EC70E080E090E05D
:101450000E946C13E12CF12C8981882301F1812FEA
:101460000E2C01C0880F0A94EAF7B1DF6EE370E03A
:1014700080E090E00E946C1300E020E030E0A901E1
:10148000BE016F5F7F4F80915F029091600222D515
:101490008FEFE81AF80A88E0E816F104E9F661E04F
:1014A00088E0FFDBE12CF12C8981882309F1C6015A
:1014B0000E2C02C0959587950A94E2F788DF6EE3BB
:1014C00070E080E090E00E946C1300E020E030E0EB
:1014D000A901BE016F5F7F4F80915F029091600212
:1014E000F9D48FEFE81AF80A88E0E816F104E1F67B
:1014F00060E088E0D6DB8981882361F002E020E0AB
:1015000030E0A901BE016F5F7F4F80915F02909133
:10151000600249D400E020E030E0A90160E070E022
:1015200080915D0290915E023ED470CF00E02FEF7B
:101530003FEFA90160E070E0CF01CCD4813009F029
:1015400065CF8FEF44DF68EC70E080E090E00E94B0
:101550006C1320E030E0A90160E070E080915D0252
:1015600090915E0220D461E088E09BDB6AEF70E03E
:1015700080E090E00E946C1360E088E092DB6AEF0C
:1015800070E080E090E00E946C1340CF40E061E0AA
:1015900081E0D7D3909362028093610240E061E0E2
:1015A00081E0CFD39093600280935F0243E060E0DC
:1015B00081E0C7D390935E0280935D0243E060E0D8
:1015C00081E0BFD390935C0280935B020895CF9338
:1015D000DF9300D0CDB7DEB71982EE24EA94F12C68
:1015E00099249A9400E02FEF3FEFA901BE016E5FAE
:1015F0007F4F80916302909164026CD4182F8130E8
:1016000089F79A81983589F58FEFE1DE64EF71E013
:1016100080E090E005DA80E0DADE64EF71E080E0FF
:1016200090E0FED98FEFD3DE64EF71E080E090E0D0
:10163000F7D980E0CCDE64EF71E080E090E0F0D993
:10164000E1DB20E030E0A90160E070E080915B0226
:1016500090915C02A8D320E030E0A90160E070E046
:1016600080915D0290915E02DEC19837B9F400E08E
:101670002FEF3FEFA90160E070E080915B02909155
:101680005C0228D42FEF3FEFA90160E070E0809169
:101690005D0290915E021ED402DCA4CF963481F4E8
:1016A0006EE271E084EA91E00E94E302B7018AE011
:1016B00036DAB70186E033DA60E089E0F2DA3CC07E
:1016C0009234A1F466E371E084EA91E00E94E302BF
:1016D000B70189E024DAB70185E021DA60E08AE029
:1016E000E0DA60E086E0DDDA198387C1923599F4AB
:1016F0006DE571E084EA91E00E94E302B7018AE0BF
:101700000EDA60E086E0CDDA60E089E0CADAB7019F
:1017100085E005DAE9CF9C3491F464E571E084EA70
:1017200091E00E94E30260E08AE0BBDAB70186E064
:10173000F6D9B70189E0F3D960E085E0D4CF9734DA
:1017400089F46BE371E084EA91E00E94E302B7015F
:10175000F7FE02C06F5F7F4F759567958AE0DFD90E
:10176000B70112C09934C1F465E471E084EA91E0F4
:101770000E94E302B7018AE0D2D9B701F7FE02C0A6
:101780006F5F7F4F7595679586E0C9D960E089E006
:1017900088DA60E085E02CC0983489F460E571E077
:1017A00084EA91E00E94E302B701F7FE02C06F5F96
:1017B0007F4F7595679589E0B2D9B70112C09A3409
:1017C000D9F469E571E084EA91E00E94E302B7018F
:1017D00089E0A5D9B701F7FE02C06F5F7F4F75950D
:1017E000679585E09CD960E08AE05BDA60E086E09E
:1017F00058DA81E0898301C1963511F461E003C0B4
:10180000963721F460E087E04CDAECCE903319F49F
:10181000E12CF12CE7CE9133A1F41F921F921F927D
:101820009F92A12CB12C65011AE0E12EF12C00E071
:1018300010E020E030E0A90161E070E080E090E09D
:10184000C5C09233A1F41F921F921F929F92A12CA8
:10185000B12C65011AE0E12EF12C00E010E020E04F
:1018600030E0A90162E070E080E090E0AFC0933327
:10187000A1F41F921F921F929F92A12CB12C65017F
:101880001AE0E12EF12C00E010E020E030E0A901A8
:1018900063E070E080E090E099C09433A1F41F927F
:1018A0001F921F929F92A12CB12C65011AE0E12E8C
:1018B000F12C00E010E020E030E0A90164E070E0ED
:1018C00080E090E083C09533A1F41F921F921F9295
:1018D0009F92A12CB12C65011AE0E12EF12C00E0C1
:1018E00010E020E030E0A90165E070E080E090E0E9
:1018F0006DC09633A1F41F921F921F929F92A12C4C
:10190000B12C65011AE0E12EF12C00E010E020E09E
:1019100030E0A90166E070E080E090E057C09733C6
:10192000A1F41F921F921F929F92A12CB12C6501CE
:101930001AE0E12EF12C00E010E020E030E0A901F7
:1019400067E070E080E090E041C09833A1F41F921E
:101950001F921F929F92A12CB12C65011AE0E12EDB
:10196000F12C00E010E020E030E0A90168E070E038
:1019700080E090E02BC09933A1F41F921F921F9238
:101980009F92A12CB12C65011AE0E12EF12C00E010
:1019900010E020E030E0A90169E070E080E090E034
:1019A00015C09137D9F41F921F921F929F92A12CBC
:1019B000B12C65011AE0E12EF12C00E010E020E0EE
:1019C00030E0A9016AE070E080E090E00E94460407
:1019D0007B010F900F900F900F9004CE933529F557
:1019E00060E08AE05ED960E086E05BD960E089E093
:1019F00058D960E085E055D9198202E020E030E056
:101A0000A901BE016F5F7F4F8091610290916202D8
:101A1000CAD120E030E0A901BE016F5F7F4F809105
:101A20005F0290916002BFD1DDCD63E671E084EA90
:101A300091E00E94D8026A8184EA91E00E94F30258
:101A4000D1CD40E061E08AE07CD190936402809344
:101A500063020895AF92BF92CF92DF92EF92FF920E
:101A60000F9361E08AE0E1D861E089E0DED861E0CF
:101A700086E0DBD861E085E0D8D861E087E0D5D8A2
:101A800061E088E0D2D861E08CE0CFD861E08BE003
:101A9000CCD861E08DE0C9D826E040E855E260E0AE
:101AA00070E084EA91E00E945C01A12CB12CC12C71
:101AB000D12CE12CF12C01E020E030E04CE251E0AF
:101AC00065E771E086E699E02BD320E030E044E65C
:101AD00050E06FE771E08CEF99E022D304E020E062
:101AE00030E044E650E068E871E087EE9AE018D311
:101AF00003E020E030E044E650E065E971E08BE887
:101B00009DE00ED30F91FF90EF90DF90CF90BF90AC
:101B1000AF90FEC30895CF93DF9300D000D01F9203
:101B2000CDB7DEB719821A821B821C8284EA91E04B
:101B30000E948A00892BD1F084EA91E00E94A400DF
:101B40008D83682F84EA91E00E94D90200E020E0B2
:101B500030E0A901BE016B5F7F4F809163029091DD
:101B6000640221D184EA91E00E94F50042E350E052
:101B700060E070E0CE01019648D5D8CF1F93CF9397
:101B8000DF93EC01142F88A181110BC0888199810A
:101B9000892B09F041C08A819B819BD71B821A82C5
:101BA0003CC0482F50E0111115C08C819D810E94CE
:101BB000D31828A18C819D81820F911D9D838C83D8
:101BC0002A813B818217930738F1888199819D830F
:101BD0008C8322C08E819F810E94D31888A190E0BF
:101BE0009195819591092E813F81280F391F3F835F
:101BF0002E83488159812417350730F42A813B818F
:101C0000820F931F9F838E83123031F48E8D882331
:101C100019F08E8D81508E8F80E09E8D9F5F9E8FFC
:101C2000DF91CF911F910895FC01CB0140A1442386
:101C3000A1F050E026813781240F351F378326839A
:101C4000628173812617370720F020813181378325
:101C50002683668177810C94D31808950F931F9380
:101C6000CF93DF93EC010FB6F8940F928C010D5EC9
:101C70001F4F9AA119165CF48B89882341F0C80183
:101C80001CD68111C3D69AA191509AA3F2CF8FEF9F
:101C90008AA30F900FBE0FB6F8940F928E01085FC3
:101CA0001F4F99A119165CF48885882341F0C8015B
:101CB00004D68111ABD699A1915099A3F2CF8FEFA1
:101CC00089A30F900FBEDF91CF911F910F910895BF
:101CD000CF93DF93EC010FB6F8940F9228813981EE
:101CE0009F8D48A1949FC0011124F901E80FF91FAD
:101CF000FB83EA831E8E3D832C83841B9109820F14
:101D0000931F9F838E838FEF89A38AA361110BC0DA
:101D10008885882381F0CE010896CFD5813059F48B
:101D20000E94161708C0CE0108960E94CA17CE015D
:101D300043960E94CA170F900FBE81E0DF91CF91AA
:101D40000895EF92FF921F93CF93DF931F92CDB729
:101D5000DEB7182F662331F0869F90011124C90148
:101D6000019602C080E090E083966983FED67C01F4
:101D70006981009781F0611104C0FC019183808327
:101D800004C08396F70191838083F701178F60A3C6
:101D900061E0C7019DDFC7010F90DF91CF911F91D7
:101DA000FF90EF900895AF92BF92CF92DF92EF92A3
:101DB000FF920F93CF93DF93CDB7DEB729970FB67E
:101DC000F894DEBF0FBECDBF7C016B012E833F8335
:101DD0004887598790E0570188E0A80EB11C0FB6DC
:101DE000F8940F92F701268D878D281710F0023096
:101DF000B1F4402FB601C701C1DEF70193899923E1
:101E000041F0C701439659D5813029F40E94161735
:101E100002C08111FBCF0F900FBE81E04BC04E81FD
:101E20005F8168857985452B462B472B19F40F90E8
:101E30000FBE3FC0911103C0CE0101967BD50F901C
:101E40000FBEA5D20FB6F8940F92F70181A18F3F74
:101E500009F411A2F70182A18F3F09F412A20F9099
:101E60000FBEBE016A5F7F4FCE01019674D581110E
:101E70001DC00FB6F8940F92F701968D0F900FBE0C
:101E8000878D98130FC04E815F8168857985C50164
:101E9000DAD4C701E3DE4ED3882311F091E09FCF5F
:101EA000C5D7FCCFC701DADE45D3F8CFC701D6DEF0
:101EB00041D380E029960FB6F894DEBF0FBECDBFA8
:101EC000DF91CF910F91FF90EF90DF90CF90BF9077
:101ED000AF900895AF92BF92CF92DF92EF92FF92B0
:101EE0000F93CF93DF93CDB7DEB729970FB6F89452
:101EF000DEBF0FBECDBF7C016B012E833F834887C1
:101F0000598790E0570183E1A80EB11C0FB6F894F1
:101F10000F92F701868D882361F1A680B780B60104
:101F2000C70182DEF701011116C0868D8150868FB0
:101F300080819181892B21F406D6F70193838283D6
:101F4000F7018085882389F0C7010896B6D48130CF
:101F500061F46CD70AC0B782A6828389882329F0EE
:101F6000C7014396AAD48111F4CF0F900FBE81E030
:101F700056C04E815F8168857985452B462B472B5E
:101F800019F40F900FBE4AC0911103C0CE01019603
:101F9000D1D40F900FBEFBD10FB6F8940F92F7017A
:101FA00081A18F3F09F411A2F70182A18F3F09F4AB
:101FB00012A20F900FBEBE016A5F7F4FCE01019645
:101FC000CAD4811128C00FB6F8940F92F701868DFC
:101FD0000F900FBE81111BC080819181892B41F42C
:101FE0000FB6F8940F928281938114D50F900FBE93
:101FF0004E815F8168857985C50125D4C7012EDEB4
:1020000099D2882311F091E081CF10D7FCCFC7017E
:1020100025DE90D2F8CFC70121DE8CD280E0299650
:102020000FB6F894DEBF0FBECDBFDF91CF910F91F9
:10203000FF90EF90DF90CF90BF90AF900895E09128
:102040009902F0919A028081811104C08FEF9FEF75
:10205000DC010EC0E0919902F0919A020780F085B0
:10206000E02D0084F185E02D82819381A481B581EA
:102070008093660290936702A0936802B09369020E
:102080000895CF92DF92EF92FF92E0911F03F091BB
:1020900020036283738384839583C0907002D09001
:1020A0007102E0907202F09073026C157D058E054E
:1020B0009F0578F460911F0370912003809197022F
:1020C000909198026E5F7F4FFF90EF90DF90CF90DE
:1020D00097C76B017C0160911F0370912003809171
:1020E000990290919A026E5F7F4F8AD78091660223
:1020F00090916702A0916802B0916902C816D90652
:10210000EA06FB0640F4C0926602D0926702E092B3
:102110006802F0926902FF90EF90DF90CF900895EF
:102120005F926F927F928F929F92AF92BF92CF9267
:10213000DF92EF92FF920F931F93CF93DF934C01A7
:10214000162F572E5A013901C114D10431F4CA0196
:102150000CD56C01892B09F4CAC08CE290E005D53E
:10216000EC01009779F0DC8ECB8E21E0A21AB10849
:10217000AC0CBD1CBC01635E7F4FE12FF52DCF0180
:10218000089606C0C60181D5B2C0E817F90749F024
:102190009F014191DB014D93BD01D9012C9121118A
:1021A000F4CF1CA2102F0A3008F019E01A8F1DA3DB
:1021B0001EA26E01B2E0CB0ED11CC601FCD6CE0130
:1021C0000E96F9D6DB87CA878AE090E0A0E0B0E0FF
:1021D000811B9109A109B1098E879F87A88BB98BB3
:1021E000DF8BCE8B1FA218A619A61AA61BA6A301C9
:1021F000B401C50174D599838883E114F10419F001
:10220000F701D183C0830FB6F8940F9280917402C6
:102210008F5F8093740280911F0390912003892B1C
:1022200099F5D0932003C0931F03809174028130ED
:1022300009F039C081EBE82E82E0F82EC701AAD65A
:10224000FBE0EF0EF11C2FE1E21623E0F206B1F7FE
:1022500086EA92E09FD68BE992E09CD68CE892E0E9
:1022600099D681E892E096D685E792E093D686EA01
:1022700092E090939A02809399028BE992E0909376
:102280009802809397020FC080916E0281110BC05B
:10229000E0911F03F0912003828D081720F0D09366
:1022A0002003C0931F0380916A028F5F80936A02AC
:1022B0008A8D90916F02981710F480936F02ABE0B3
:1022C0008A9FC0011124B6018F549D4F78D60F907C
:1022D0000FBE80916E02882341F0E0911F03F091C0
:1022E0002003828D801708F4A1D581E001C08FEF13
:1022F000DF91CF911F910F91FF90EF90DF90CF90E2
:10230000BF90AF909F908F907F906F905F90089557
:10231000AF92BF92CF92DF92EF92FF920F93A12CD8
:10232000B12CC12CD12CE12CF12C00E020E030E0CC
:1023300045E550E06FE971E089EA93E1F1DE813033
:10234000F1F4F8944FEF5FEFBA01409366025093B7
:102350006702609368027093690280936E02109224
:1023600070021092710210927202109273020F9119
:10237000FF90EF90DF90CF90BF90AF901CC50F9172
:10238000FF90EF90DF90CF90BF90AF900895809135
:1023900065028F5F8093650208958F929F92AF923E
:1023A000BF92EF92FF920F931F93CF93DF93809191
:1023B00065028111A9C08091700290917102A09173
:1023C0007202B09173020196A11DB11D809370023B
:1023D00090937102A0937202B09373028090700286
:1023E00090907102A0907202B090730281149104D7
:1023F000A104B104B1F48091990290919A022091C4
:1024000097023091980230939A0220939902909308
:1024100098028093970280916B028F5F80936B028A
:102420000EDE8091660290916702A0916802B091E1
:102430006902C0E088169906AA06BB0608F454C0D3
:10244000DBE0E0919902F0919A028081811104C051
:102450008FEF9FEFDC0113C0E0919902F0919A0297
:102460000780F085E02D00851185F8018281938138
:10247000A481B58188169906AA06BB0648F4809304
:10248000660290936702A0936802B09369022CC021
:102490007801F2E0EF0EF11CC701F6D5D80158968D
:1024A0008D919C915997892B19F0C8010E96ECD506
:1024B000F801928D80916F02891710F490936F024A
:1024C000D99FC0011124B7018F549D4F78D5E09159
:1024D0001F03F0912003D8015A969C91828D981782
:1024E00008F4AFCFC1E0ADCFE0911F03F09120031E
:1024F000E28DBBE0EB9FF0011124EF54FD4F808192
:10250000823040F0C1E006C080916D028F5F809301
:102510006D02C0E080916C028111C1E08C2FDF91CF
:10252000CF911F910F91FF90EF90BF90AF909F9030
:102530008F900895EF92FF920F931F93CF93DF93A5
:102540000FB6F8940F9280916502815080936502D6
:1025500080916502882311F080E04EC08091740262
:102560008823D1F38BE0F82EEE24E39480918C0243
:10257000882339F1E0919302F0919402C085D185CE
:10258000CE010E9681D58E010E5F1F4FC8017CD5FE
:102590009A8D80916F02891710F490936F02F99EC3
:1025A000C0011124B8018F549D4F09D5E0911F033C
:1025B000F09120039A8D828D9817C0F2E0926C0200
:1025C000D5CF80916D02811108C080916C0281305D
:1025D00009F0C2CF2BD481E00FC0C1E080916D0221
:1025E000882399F3DADE8111C0936C0280916D0229
:1025F000815080936D02F2CF0F900FBEDF91CF918B
:102600001F910F91FF90EF900895AF92BF92CF92DC
:10261000DF92EF92FF920F931F93CF93DF9300D03F
:1026200000D0CDB7DEB75C0149835A836B837C83CE
:10263000AEDE009170021091710220917202309111
:102640007302F50180819181A281B38149815A8110
:102650006B817C816C017D01C40ED51EE61EF71EC8
:10266000081719072A073B0730F4C816D906EA06E7
:10267000FB0660F405C0C816D906EA06FB0640F062
:1026800091E00C151D052E053F0518F090E001C0E6
:1026900091E0F501C082D182E282F382992349F070
:1026A00080911F03909120030296EED4C701B601DA
:1026B000E8DC40DF811101C0B9D30F900F900F907B
:1026C0000F90DF91CF911F910F91FF90EF90DF90CE
:1026D000CF90BF90AF900895CF92DF92EF92FF928C
:1026E000CF93DF9300D000D0CDB7DEB76115710571
:1026F0008105910511F49AD321C069837A838B8374
:102700009C8345DEC0907002D0907102E09072020E
:10271000F090730269817A818B819C81C60ED71EED
:10272000E81EF91E80911F03909120030296ACD4FD
:10273000C701B601A6DCFEDE8823E9F20F900F90F8
:102740000F900F90DF91CF91FF90EF90DF90CF909F
:10275000089580918002882321F119DEC0918102C1
:10276000E9DECC23B1F30FB6F8940F92E091880222
:10277000F0918902C085D185CE01029685D48091E1
:102780007402815080937402809180028150809302
:1027900080020F900FBE8B8D9C8D77D2CE0175D2AB
:1027A000D8CF8091B1028230A0F240D3D2CF8091B5
:1027B0006502882321F081E080936C0208951092D5
:1027C0006C029BE0E0916F029E9FF0011124EF5498
:1027D000FD4F8081811106C080916F0281508093EE
:1027E0006F02F0CF80916F0290E04BE0489F900124
:1027F000499F300D1124F901EF54FD4FA181B281A1
:1028000014960D90BC91A02DB283A1832C543D4F02
:10281000A217B30731F414962D913C91159732838A
:1028200021832BE0289FF001299FF00D1124EF5404
:10283000FD4F0180F281E02D8085918590932003EA
:1028400080931F030895CF92DF92EF92FF926A0167
:102850007B0120911F0330912003B901625F7F4FFC
:10286000CFD380911F039091200302960DD48FEF58
:10287000C816D806E806F80669F460911F0370913F
:1028800020036E5F7F4F85E792E0FF90EF90DF902F
:10289000CF9095C38091700290917102A0917202C5
:1028A000B0917302BC01CD016C0D7D1D8E1D9F1D6D
:1028B000FF90EF90DF90CF90E4CB0F931F93CF93D7
:1028C000DF93DC011796ED91FC911897C085D185B7
:1028D0008E01025F1F4FC801D7D38091650281111D
:1028E00013C00C501109C801CFD39A8D80916F028B
:1028F000891710F490936F02BBE09B9FC0011124D5
:10290000B8018F549D4F03C0B8018CE892E057D3B3
:10291000E0911F03F09120039A8D828D891720F496
:1029200081E080936C0201C080E0DF91CF911F9124
:102930000F91089520916B02FC0120834091700259
:1029400050917102609172027091730241835283BF
:102950006383748308958F929F92AF92BF92CF92B8
:10296000DF92EF92FF920F931F93CF93DF93FB01C0
:102970000FB6F8940F92C0907002D0907102E09060
:102980007202F090730240815181628173814F3FE6
:102990002FEF52076207720739F1B0916B02EC0119
:1029A000A88109811A812B813C81BA1729F0C016B0
:1029B000D106E206F306D0F446015701801A910AC7
:1029C000A20AB30A84169506A606B70678F40C196F
:1029D0001D092E093F09400F511F621F731F4083BD
:1029E000518362837383A6DF80E001C081E00F9092
:1029F0000FBEDF91CF911F910F91FF90EF90DF906D
:102A0000CF90BF90AF909F908F90089581E080937A
:102A10006C0208950F931F93CF93DF93FC01892BD2
:102A200009F452C0828DA0911F03B09120035A96E1
:102A30009C91891708F048C046855785608971893F
:102A400077FD12C0A0911F03B09120035A969C916C
:102A50004AE050E060E070E0491B510961097109EA
:102A600046875787608B718B2BE0829FC0011124B2
:102A70008F549D4F2485358528173907F1F48F0130
:102A8000EF012296CE0100D3E0911F03F0912003C5
:102A9000928DF801928F80916F02891710F49093B4
:102AA0006F02FBE09F9FC0011124BE018F549D4F18
:102AB000DF91CF911F910F9182C2A0911F03B0911E
:102AC00020035A968C91828FDF91CF911F910F91A5
:102AD00008950F931F93CF93DF93FC01892B11F47B
:102AE00080E02CC086A1815086A3228D95A1291754
:102AF000B9F38111F5CFEF018F010E5F1F4FC801B0
:102B0000C3D29DA19A8F4AE050E060E070E0491B7B
:102B10005109610971094E875F87688B798B8091B4
:102B20006F02891710F490936F022BE0929FC001FF
:102B30001124B8018F549D4F42D281E0DF91CF9193
:102B40001F910F91089580911F0390912003892B6D
:102B500039F0E0911F03F091200386A18F5F86A3D7
:102B600080911F039091200308950F931F93CF939B
:102B7000DF93EC010CDC80912103811121C08BE2F9
:102B800093E09093270380932603109229031092D9
:102B900028038BED95E090932503809324031092F6
:102BA00023031092220390932E0380932D0382E23D
:102BB00093E090932C0380932B0381E08093210377
:102BC000209709F02496CE0101978A3D954008F0A0
:102BD00053C0E0912603F0912703A6E2B3E082817F
:102BE00093818C179D0728F023E0E232F20749F425
:102BF00043C02081318121153105B1F3DF01F90195
:102C0000EECF0D911C9111970C5F1F4F20813181E8
:102C10002D933C938C1B9D0B8930910500F1DF01B6
:102C2000AC0FBD1F13969C938E931297D383C283D0
:102C300012962D913C91139766E273E0EB01888127
:102C40009981EC014A815B814217530710F4BC0162
:102C5000F5CF11969C938E93EB01B983A883809155
:102C600005019091060122813381821B930B909381
:102C700006018093050102C000E010E05BDCC801A2
:102C8000DF91CF911F910F910895CF93DF9300971C
:102C900019F1EC0124977BDB8A819B81E6E2F3E06A
:102CA000A081B18112962D913C9113972817390775
:102CB00010F4FD01F5CFB983A883D183C08320919F
:102CC000050130910601820F931F909306018093B6
:102CD0000501DF91CF912ECCDF91CF91089531E1A5
:102CE000FC013083319722E220833197A3E3A08354
:102CF000319760833197708331971082319760E804
:102D0000608331971082319762E06083319763E08E
:102D10006083319764E06083319765E06083319729
:102D200066E06083319767E06083319768E0608395
:102D3000319769E06083319760E160833197308338
:102D4000319732E13083319733E13083319734E189
:102D50003083319735E13083319736E130833197D5
:102D600037E13083319738E13083319739E130836F
:102D7000319730E23083319731E2308331972083CD
:102D8000319723E2208331974083319750833197E5
:102D900026E22083319727E22083319728E220839F
:102DA000319729E22083319720E32083319721E373
:102DB00020838697089589E08093890083EC80932F
:102DC00088008BE080938100EFE6F0E080818260F4
:102DD0008083A0911F03B0912003CD91CDBFDD91E1
:102DE000DEBFFF91EF91DF91CF91BF91AF919F91A6
:102DF0008F917F916F915F914F913F912F911F9193
:102E00000F91FF90EF90DF90CF90BF90AF909F9089
:102E10008F907F906F905F904F903F902F901F907A
:102E20000F900FBE0F90089581E008950F920FB696
:102E3000F8940F921F9211242F923F924F925F921B
:102E40006F927F928F929F92AF92BF92CF92DF92BA
:102E5000EF92FF920F931F932F933F934F935F93A4
:102E60006F937F938F939F93AF93BF93CF93DF9392
:102E7000EF93FF93A0911F03B09120030DB60D9225
:102E80000EB60D9294DCA0911F03B0912003CD915A
:102E9000CDBFDD91DEBFFF91EF91DF91CF91BF916B
:102EA000AF919F918F917F916F915F914F913F91E2
:102EB0002F911F910F91FF90EF90DF90CF90BF90D7
:102EC000AF909F908F907F906F905F904F903F90CA
:102ED0002F901F900F900FBE0F9008950F920FB676
:102EE000F8940F921F9211242F923F924F925F926B
:102EF0006F927F928F929F92AF92BF92CF92DF920A
:102F0000EF92FF920F931F932F933F934F935F93F3
:102F10006F937F938F939F93AF93BF93CF93DF93E1
:102F2000EF93FF93A0911F03B09120030DB60D9274
:102F30000EB60D9232DA81113ADCA0911F03B091E6
:102F40002003CD91CDBFDD91DEBFFF91EF91DF91E9
:102F5000CF91BF91AF919F918F917F916F915F9131
:102F60004F913F912F911F910F91FF90EF90DF9024
:102F7000CF90BF90AF909F908F907F906F905F9019
:102F80004F903F902F901F900F900FBE0F9008957D
:102F9000A5DF1895FC010396928381834FEF5FEFC5
:102FA000BA014383548365837683908787839287AE
:102FB000818710820895FC01138612860895CF93AD
:102FC000DF939C01FB01DC011196CD91DC911297FE
:102FD000D583C4838E819F81978386838E819F81D1
:102FE000DC0115967C936E9314977F836E833387F1
:102FF0002287F90180818F5F8083DF91CF910895CF
:10300000EF92FF920F931F93CF93DF937C01FB010D
:1030100040815181628173814F3F8FEF580768076C
:10302000780721F4E701A985BA8512C0D701139664
:1030300014968D919C911597EC01088119812A8134
:103040003B81401751076207730710F0DC01F0CF96
:1030500014968D919C91159795838483EC01FF8341
:10306000EE83B783A6831596FC93EE931497F386AD
:10307000E286F70180818F5F8083DF91CF911F917E
:103080000F91FF90EF900895CF93DF93FC01A285FD
:10309000B3858481958126813781EC013F832E831E
:1030A000C681D7819D838C8311968D919C911297B7
:1030B0008E179F0721F41296DC93CE9311971386F7
:1030C00012868C9181508C93DF91CF910895DB0112
:1030D0008F939F9349D0BF91AF91A29F800D911D77
:1030E000A39F900DB29F900D11240895A1E21A2E76
:1030F000AA1BBB1BFD010DC0AA1FBB1FEE1FFF1F9C
:10310000A217B307E407F50720F0A21BB30BE40BEB
:10311000F50B661F771F881F991F1A9469F7609532
:103120007095809590959B01AC01BD01CF010895EC
:10313000052E97FB16F400940FD057FD05D0D6DF6F
:1031400007FC02D046F408C0509540953095219573
:103150003F4F4F4F5F4F08959095809570956195C3
:103160007F4F8F4F9F4F08950FD0A59F900DB49F15
:10317000900DA49F800D911D11240895EE0FFF1F47
:103180000590F491E02D0994A29FB001B39FC00176
:10319000A39F700D811D1124911DB29F700D811D83
:1031A0001124911D0895FB01DC0102C001900D92D4
:0C31B00041505040D8F70895F894FFCF2C
:1031BC00FFF703F703DB050000000016019802B8C7
:1031CC0000F5008A00A4009600000000004E020DDD
:1031DC000A006E616E00696E66006F766600464F7F
:1031EC005257415244004241434B0046524F4E54B9
:1031FC004C4546540046524F4E5452494748540091
:10320C004241434B4C454654004241434B52494783
:10321C00485400496E76616C696420636F6D6D6112
:10322C006E643A200042616279536861726B006788
:10323C007265656E4C4544006D6F76656D656E7498
:10324C007461736B00626C7565746F6F74680049A0
:04325C00444C450099
:00000001FF
