:1000000060C00000F4C3000019C4000081C00000FB
:100010007FC000007DC000007BC000008CC30000DA
:1000200077C0000075C0000073C000000C94151864
:100030006FC000006DC000006BC0000069C0000010
:1000400071C4000065C000009BC10000CBC100006E
:100050005FC000005DC000005BC0000059C0000030
:1000600057C0000055C00000020000000800020157
:10007000000003040700000000000000000102046B
:10008000081020408001020408102001020408101A
:100090002004040404040404040202020202020311
:1000A000030303030300000000250028002B0000C9
:1000B000000000240027002A000020028C02E90B27
:1000C000020E11241FBECFEFD8E0DEBFCDBF11E07E
:1000D000A0E0B1E0E4EAF2E302C005900D92A43A98
:1000E000B107D9F728E0A4EAB1E001C01D92AE3F04
:1000F000B207E1F710E0C1E6D0E004C02197FE01AD
:100100000E943219CD35D107C9F702D40C94501989
:1001100077CFFC01918D228D892F90E0805C9F4FDD
:10012000821B91098F7399270895FC01918D828D0F
:10013000981731F0828DE80FF11D858D90E00895BC
:100140008FEF9FEF0895FC01918D828D981761F0DC
:10015000828DDF01A80FB11D5D968C91928D9F5FFE
:100160009F73928F90E008958FEF9FEF0895FC01A9
:10017000538D448D252F30E0842F90E0821B930B0C
:10018000541710F0CF9608950197089587E192E0F3
:10019000892B41F080E090E0892B21F048D181113A
:1001A0000C9400000895FC01848DDF01A80FB11D9F
:1001B000A35ABF4F2C91848D90E001968F7399279D
:1001C000848FA689B7892C93A089B1898C9180648A
:1001D0008C93938D848D981306C00288F389E02D4B
:1001E00080818F7D80830895CF93DF93EC01888D8C
:1001F0008823C1F0EA89FB89808185FD05C0A88933
:10020000B9898C9186FD0EC00FB607FCF5CF8081B1
:1002100085FFF2CFA889B9898C9185FFEDCFCE01FA
:10022000C2DFE8CFDF91CF910895EF92FF920F9355
:100230001F93CF93DF93EC0181E0888F9B8D8C8D92
:10024000981305C0E889F989808185FD23C0F62EC1
:100250000B8D10E00F5F1F4F0F731127E02E8C8D59
:10026000E8120BC00FB607FCFACFE889F989808144
:1002700085FFF5CFCE0197DFF2CF8B8DFE01E80F22
:10028000F11DE35AFF4FF0820B8FEA89FB898081D1
:10029000806207C0EE89FF896083E889F9898081DF
:1002A0008064808381E090E0DF91CF911F910F9176
:1002B000FF90EF900895CF92DF92EF92FF921F93FD
:1002C000CF93DF93EC016A017B01122FE889F98952
:1002D00082E080834115514E61057105B1F060E007
:1002E00079E08DE390E0A70196010E94D618DA012B
:1002F000C9010197A109B109B695A7959795879569
:10030000AC01411580E15807A8F0E889F98910820D
:1003100060E874E88EE190E0A70196010E94D6188B
:10032000BA01A90141505109610971097695679592
:1003300057954795EC85FD855083EE85FF85408375
:10034000188EEC89FD891083EA89FB8980818061A0
:100350008083EA89FB89808188608083EA89FB89C0
:10036000808180688083EA89FB8980818F7D80839A
:10037000DF91CF911F91FF90EF90DF90CF90089584
:100380001F920F920FB60F9211242F938F939F936A
:10039000EF93FF93E091B401F091B5018081E0917A
:1003A000BA01F091BB0182FD12C090818091BD0124
:1003B0008F5F8F732091BE01821751F0E091BD01D4
:1003C000F0E0EC55FE4F958F8093BD0101C0808118
:1003D000FF91EF919F918F912F910F900FBE0F90F2
:1003E0001F9018951F920F920FB60F9211242F9302
:1003F0003F934F935F936F937F938F939F93AF93AD
:10040000BF93EF93FF9384EA91E0CDDEFF91EF91EC
:10041000BF91AF919F918F917F916F915F914F911C
:100420003F912F910F900FBE0F901F90189584EA67
:1004300091E06FDE21E0892B09F420E0822F0895FE
:10044000E4EAF1E01382128288EE93E0A0E0B0E0EB
:1004500084839583A683B7838BE091E09183808327
:1004600085EC90E09587848784EC90E09787868779
:1004700080EC90E0918B808B81EC90E0938B828B71
:1004800082EC90E0958B848B86EC90E0978B868B4A
:10049000118E128E138E148E08958F929F92AF92AA
:1004A000BF92CF92DF92EF92FF920F931F93CF9361
:1004B000DF937C018B016C0182E0C80ED11C4701E7
:1004C000E5E08E0E911CC0E0D0E0F60161916F0175
:1004D0004AE050E0C801F5D05C016EE2C80168D086
:1004E0008A0D9B1DC80FD91FC814D90471F74AE0A3
:1004F00050E0F7016581C801E4D08C0F9D1FDF91AA
:10050000CF911F910F91FF90EF90DF90CF90BF9010
:10051000AF909F908F900895E1E4F2E08DE191E03B
:100520009183808312821382148215820895CF9260
:10053000DF92EF92FF920F931F93CF93DF936C01A3
:100540007A018B01C0E0D0E0CE15DF0589F0D8013B
:100550006D918D01D601ED91FC910190F081E02D1E
:10056000C6010995892B11F47E0102C02196ECCFBA
:10057000C701DF91CF911F910F91FF90EF90DF9016
:10058000CF9008956115710579F0FB01019000206D
:10059000E9F73197AF01461B570BDC01ED91FC9158
:1005A0000280F381E02D099480E090E00895EACF85
:1005B000DC01ED91FC910190F081E02D09946FE157
:1005C00071E0E0CF0F931F93CF93DF93EC01DADF5D
:1005D0008C01CE01F4DF800F911FDF91CF911F912D
:1005E0000F9108950F931F93CF93DF93EC01E0DFFA
:1005F0008C01CE01E4DF800F911FDF91CF911F911D
:100600000F9108958F929F92AF92BF92CF92DF92F7
:10061000EF92FF920F931F93CF93DF93CDB7DEB787
:10062000A1970FB6F894DEBF0FBECDBF7C01D42ECC
:10063000C52EDB0119A2223008F42AE08E010F5DDD
:100640001F4F822E912CA12CB12C6D2D7C2DCD0114
:10065000A50194010E94D618D22EC32EDA010150B2
:1006600011096A3071058105910510F4605D01C0C2
:10067000695CF8016083232B242B252B31F7B8010B
:10068000C70180DFA1960FB6F894DEBF0FBECDBFC5
:10069000DF91CF911F910F91FF90EF90DF90CF905E
:1006A000BF90AF909F908F9008952115310541F430
:1006B000DC01ED91FC910190F081E02D642F099413
:1006C000A1CF9A01462F50E060E070E0EECF81307C
:1006D00039F018F0823051F0089510926E000895AC
:1006E00080916F008D7F80936F00089580917000DE
:1006F0008D7F8093700081E08093B0008091B10085
:10070000887F84608093B1001092B3000895CF93E6
:10071000C82F809100018C1307C0E8E6F0E0E49157
:100720008FEF8093000101C0EFEF8E2FD0DF60E0EC
:100730008C2FCF91B3C21F920F920FB60F9211243C
:100740002F933F934F935F936F937F938F939F93D9
:10075000AF93BF93EF93FF9380914A0290914B0226
:10076000A0914C02B0914D02892B8A2B8B2B51F119
:1007700080914702E0914802F091490290818927D7
:10078000808380914A0290914B02A0914C02B091DB
:100790004D02181619061A061B06BCF480914A026F
:1007A00090914B02A0914C02B0914D020197A1098A
:1007B000B10980934A0290934B02A0934C02B093EC
:1007C0004D0203C080910001A2DFFF91EF91BF9124
:1007D000AF919F918F917F916F915F914F913F91D9
:1007E0002F910F900FBE0F901F90189508951F9294
:1007F0000F920FB60F9211242F933F934F935F9355
:100800006F937F938F939F93AF93BF93EF93FF93D8
:10081000E0910101F09102010995FF91EF91BF91E3
:10082000AF919F918F917F916F915F914F913F9188
:100830002F910F900FBE0F901F9018951F920F923F
:100840000FB60F9211242F933F934F935F936F93A3
:100850007F938F939F93AF93BF93EF93FF93E09119
:100860000301F09104010995FF91EF91BF91AF91C0
:100870009F918F917F916F915F914F913F912F91B8
:100880000F900FBE0F901F9018954F925F926F922E
:100890007F92AF92BF92CF92DF92EF92FF920F932F
:1008A0001F93CF93DF93CDB7DEB729013A019B01A8
:1008B000AC01241935094609570989899A89AB89F8
:1008C000BC89BC01CD016A197B098C099D090E9474
:1008D000B418A801970124193509460957090E943F
:1008E000F818CA01B9016A0D7B1D8C1D9D1DDF9191
:1008F000CF911F910F91FF90EF90DF90CF90BF901D
:10090000AF907F906F905F904F90089508950895F5
:10091000C8D0FDDFEDD5C6ECD0E04AD62097E9F38C
:1009200035DCFBCF1F920F920FB60F9211242F933D
:100930003F938F939F93AF93BF9380914F0290917A
:100940005002A0915102B091520230914E0223E028
:10095000230F2D3720F40196A11DB11D05C026E8F7
:10096000230F0296A11DB11D20934E0280934F02CA
:1009700090935002A0935102B0935202809153027F
:1009800090915402A0915502B09156020196A11D7A
:10099000B11D8093530290935402A0935502B093DB
:1009A0005602BF91AF919F918F913F912F910F90E0
:1009B0000FBE0F901F9018952FB7F89460914F02BB
:1009C0007091500280915102909152022FBF089570
:1009D0003FB7F8948091530290915402A091550230
:1009E000B091560226B5A89B05C02F3F19F001967D
:1009F000A11DB11D3FBFBA2FA92F982F8827820FA5
:100A0000911DA11DB11DBC01CD0142E0660F771FF4
:100A1000881F991F4A95D1F708958F929F92AF92A0
:100A2000BF92CF92DF92EF92FF926B017C01D0DFF9
:100A30004B015C01C114D104E104F104F1F066DF63
:100A4000C7DFDC01CB0188199909AA09BB09883ED7
:100A50009340A105B10570F321E0C21AD108E10865
:100A6000F10888EE880E83E0981EA11CB11CC11409
:100A7000D104E104F10421F7DDCFFF90EF90DF9086
:100A8000CF90BF90AF909F908F9008958230910546
:100A900038F0880F991F880F991F05970197F1F774
:100AA0000895789484B5826084BD84B5816084BDE6
:100AB00085B5826085BD85B5816085BDEEE6F0E0D7
:100AC000808181608083E1E8F0E010828081826033
:100AD0008083808181608083E0E8F0E080818160B4
:100AE0008083E1EBF0E0808184608083E0EBF0E0E4
:100AF000808181608083EAE7F0E080818460808388
:100B00008081826080838081816080838081806831
:100B100080831092C10008951F93CF93DF93182F05
:100B2000EB0161E07FD0209711F460E004C0CF3F7B
:100B3000D10531F461E0812FDF91CF911F91AEC0DB
:100B4000E12FF0E0E759FF4FE491E330F9F048F48A
:100B5000E130B9F0E230A1F584B5806284BDC8BD52
:100B600034C0E730E9F0E83019F1E43049F580911C
:100B70008000806280938000D0938B00C0938A00B5
:100B800024C084B5806884BDC7BD1FC0809180002B
:100B9000806880938000D0938900C093880015C03E
:100BA0008091B00080688093B000C093B3000DC006
:100BB0008091B00080628093B000C093B40005C003
:100BC000C038D1050CF0B6CFB0CFDF91CF911F91D7
:100BD0000895833081F028F4813099F08230A1F0BB
:100BE00008958730A9F08830B9F08430D1F480912D
:100BF00080008F7D03C0809180008F77809380007C
:100C0000089584B58F7702C084B58F7D84BD089523
:100C10008091B0008F7703C08091B0008F7D80936A
:100C2000B0000895CF93DF9390E0FC01E358FF4FAD
:100C30002491FC01EF56FF4F8491882361F190E0ED
:100C4000880F991FFC01E155FF4FC591D491FC011C
:100C5000EB55FF4FA591B491611109C09FB7F8946E
:100C60008881209582238883EC912E230BC06230EB
:100C700061F49FB7F8943881822F8095832388830D
:100C8000EC912E2B2C939FBF06C08FB7F894E88170
:100C90002E2B28838FBFDF91CF9108951F93CF9381
:100CA000DF93282F30E0F901E759FF4F8491F901D4
:100CB000E358FF4FD491F901EF56FF4FC491CC2375
:100CC000C1F0162F811185DFEC2FF0E0EE0FFF1F32
:100CD000EB55FF4FA591B4918FB7F894111105C052
:100CE0009C91ED2FE095E92302C0EC91ED2BEC9364
:100CF0008FBFDF91CF911F910895BF92CF92DF9266
:100D0000EF92FF920F931F93CF93DF93C82ED62EAF
:100D1000B42EC7E0D0E0022F10E087E0E82EF12CDF
:100D2000B11005C0C7018C1B9D0B980102C0980132
:100D30008C2F02C0359527958A95E2F7B90161702D
:100D400077278C2DABDF61E08D2DA8DF60E08D2D46
:100D5000A5DF219728F7DF91CF911F910F91FF9089
:100D6000EF90DF90CF90BF9008954F925F926F9277
:100D70007F928F929F92AF92BF92CF92DF92EF922B
:100D8000FF92CF93C82F7B014A0116DE2B013C0155
:100D9000970140E050E060E271EA87E090E00E9455
:100DA000F81869017A0161E08C2F3CDFA12CB12C8D
:100DB00003DEDC01CB0184199509A609B709881562
:100DC0009905AA05BB0558F461E08C2F67DFC601C1
:100DD0005DDE60E08C2F62DFC60158DEE9CF60E0A7
:100DE0008C2FCF91FF90EF90DF90CF90BF90AF907E
:100DF0009F908F907F906F905F904F9013CF44E6BD
:100E000050E064E972E082E0B0DF66E970E080E023
:100E100090E003DE44E650E064E972E082E0A5DFA2
:100E20006CE271E080E090E0F8DD44E650E064E9D7
:100E300072E082E09ADF6CE271E080E090E0EDDD4C
:100E400044E650E06EEF71E082E08FDF64E670E030
:100E500080E090E0E2DD44E650E064E972E082E0A8
:100E600084DF6CE271E080E090E0D7DD44E650E0A2
:100E700062E073E082E079DF66E272E080E090E0B9
:100E8000CCDD44E650E06CE771E082E06EDF6FE3BA
:100E900072E080E090E0C1CD44E650E064E972E0A9
:100EA00082E063DF66E970E080E090E0B6DD44E672
:100EB00050E064E972E082E058DF6CE271E080E0CB
:100EC00090E0ABDD44E650E064E972E082E04DDFA3
:100ED0006CE271E080E090E0A0DD44E650E06EEF6F
:100EE00071E082E042DF64E670E080E090E095DD52
:100EF00044E650E064E972E082E037DF6CE271E0E2
:100F000080E090E08ADD44E650E062E073E082E059
:100F10002CDF66E272E080E090E07FDD44E650E0A6
:100F20006CE771E082E021DF6FE372E080E090E047
:100F300074DD44E650E06EEF71E082E016DF62ECB3
:100F400071E080E090E069DD44E650E06CE771E03C
:100F500082E00BDF60E971E080E090E05EDD44E676
:100F600050E060E471E082E000DF64EF71E080E077
:100F700090E053DD44E650E068EB71E082E0F5DE9E
:100F80006CE271E080E090E048DD40E550E060EE2A
:100F900071E082E0EADE6AE471E080E090E03DDD4D
:100FA00044E650E062EC71E082E0DFDE66E970E08A
:100FB00080E090E032DD44E650E06EEA71E082E0ED
:100FC000D4DE6CE271E080E090E027DD44E650E0A2
:100FD0006CE771E082E0C9DE68EC70E080E090E0F0
:100FE0001CDD40E550E064E972E082E0BEDE68ECC2
:100FF00070E080E090E011DD42E350E068EF72E0E5
:1010000082E0B3DE66E970E080E090E006DD44E671
:1010100050E06CE573E082E0A8DE6CE271E080E015
:1010200090E0FBDC40E550E06CEB72E082E09DDE9E
:1010300066E970E080E090E0F0DC42E350E068EFC9
:1010400072E082E092DE6EE571E080E090E0E5DC47
:1010500040E550E064E972E082E087DE6CE271E036
:1010600080E090E0DADC40E550E068E072E082E0A9
:101070007CDE66E970E080E090E0CFDC40E550E0A7
:1010800064E472E082E071DE66E970E080E090E0A6
:10109000C4DC40E550E060EE71E082E066DE64EFC3
:1010A00071E080E090E0B9DC44E650E06EEF71E082
:1010B00082E05BDE62EC71E080E090E0AEDC44E672
:1010C00050E06CE771E082E050DE60E971E080E0C2
:1010D00090E0A3DC44E650E060E471E082E045DEAD
:1010E00064EF71E080E090E098DC44E650E068EB6B
:1010F00071E082E03ADE6CE271E080E090E08DDC4D
:1011000040E550E060EE71E082E02FDE6AE471E0DD
:1011100080E090E082DC44E650E062EC71E082E046
:1011200024DE66E970E080E090E077DC44E650E0A1
:101130006EEA71E082E019DE6CE271E080E090E03E
:101140006CDC44E650E06CE771E082E00EDE68ECB7
:1011500070E080E090E061DC40E550E064E972E03E
:1011600082E003DE68EC70E080E090E056DC42E371
:1011700050E068EF72E082E0F8DD66E970E080E060
:1011800090E04BDC44E650E06CE573E082E0EDDD9E
:101190006CE271E080E090E040DC40E550E06CEB18
:1011A00072E082E0E2DD66E970E080E090E035DC4C
:1011B00042E350E068EF72E082E0D7DD6EE571E077
:1011C00080E090E02ADC40E550E064E972E082E0F3
:1011D000CCDD6CE271E080E090E01FDC40E550E0A7
:1011E00068E072E082E0C1DD66E970E080E090E0F6
:1011F00014DC40E550E064E472E082E0B6DD66E9CC
:1012000070E080E090E009DC40E550E060EE71E0E5
:1012100082E0ABDD64EF71E080E090E0FECB4AEF6E
:1012200050E062E970E082E0A0DD6BEF70E080E00A
:1012300090E00E94B9134AEF50E064EA70E082E067
:1012400094DD6BEF70E080E090E00E94B9134DE711
:1012500050E068E871E082E088DD6EE770E080E0F1
:1012600090E00E94B9134DE750E068E871E082E039
:101270007CDD6EE770E080E090E00E94B9134DE7FE
:1012800050E068E871E082E070DD6EE770E080E0D9
:1012900090E00E94B9134EE350E068E871E082E00C
:1012A00064DD6FE370E080E090E00E94B9134DE7E9
:1012B00050E068E871E082E058DD6EE770E080E0C1
:1012C00090E00E94B9134EE350E068E871E082E0DC
:1012D0004CDD6FE370E080E090E00E94B9134DE7D1
:1012E00050E068E871E082E040DD6EE770E080E0A9
:1012F00090E00E94B9134DE750E064EC70E082E0AA
:1013000034DD6EE770E080E090E00E94B9134DE7B5
:1013100050E064EC70E082E028DD6EE770E080E091
:1013200090E00E94B9134DE750E068E871E082E078
:101330001CDD6EE770E080E090E00E94B9134DE79D
:1013400050E068E871E082E010DD6EE770E080E078
:1013500090E00E94B9134DE750E068E871E082E048
:1013600004DD6EE770E080E090E00E94B9134EE388
:1013700050E068E871E082E0F8DC6FE370E080E064
:1013800090E00E94B9134DE750E068E871E082E018
:10139000ECDC6EE770E080E090E00E94B9134EE371
:1013A00050E068E871E082E0E0DC6FE370E080E04C
:1013B00090E00E94B9134DE750E068E871E082E0E8
:1013C000D4DC6EE770E080E090E00E94B9134DE756
:1013D00050E064EC70E082E0C8DC6EE770E080E032
:1013E00090E00E94B9134DE750E064EC70E082E0B9
:1013F000BCDC6EE770E080E090E00E94B9134DE73E
:1014000050E068E871E082E0B0DC6EE770E080E018
:1014100090E00E94B9134DE750E068E871E082E087
:10142000A4DC6EE770E080E090E00E94B9134DE725
:1014300050E068E871E082E098DC6EE770E080E000
:1014400090E00E94B9134EE350E068E871E082E05A
:101450008CDC6FE370E080E090E00E94B9134DE710
:1014600050E068E871E082E080DC6EE770E080E0E8
:1014700090E00E94B9134EE350E068E871E082E02A
:1014800074DC6FE370E080E090E00E94B9134DE7F8
:1014900050E068E871E082E068DC6EE770E080E0D0
:1014A00090E00E94B9134DE750E064EC70E082E0F8
:1014B0005CDC6EE770E080E090E00E94B9134DE7DD
:1014C00050E064EC70E082E050DC6EE770E080E0B9
:1014D00090E00E94B91344EF51E061E771E082E0CF
:1014E00044DC65EF71E080E090E00E94B91397CE94
:1014F000AF92BF92CF92DF92EF92FF920F9361E093
:101500008AE090DB61E089E08DDB61E086E08ADBE8
:1015100061E085E087DB61E087E084DB61E088E013
:1015200081DB61E08CE07EDB61E08BE07BDB61E016
:101530008DE078DB26E040E855E260E070E084EA88
:1015400091E00E945B01A12CB12CC12CD12CE12C8B
:10155000F12C01E020E030E04CE251E06EE271E07D
:101560008FE099E02AD620E030E044E650E068E3DE
:1015700071E082E29BE021D604E020E030E044E626
:1015800050E061E471E08AEF9BE017D603E020E0D1
:1015900030E044E650E06EE471E089ED9AE00DD66B
:1015A0000F91FF90EF90DF90CF90BF90AF90FDC66E
:1015B0000895CF93DF9300D000D01F92CDB7DEB750
:1015C00019821A821B821C8284EA91E00E9489009F
:1015D000892BD1F084EA91E00E94A3008D83682FCB
:1015E00084EA91E00E94D80200E020E030E0A90106
:1015F000BE016B5F7F4F80915B0290915C0220D4B3
:1016000084EA91E00E94F40042E350E060E070E080
:10161000CE0101960E945213D7CFCF93DF931F9232
:10162000CDB7DEB7282F60E08CE0298337DB298136
:1016300040E06DE08BE061DB61E08CE00F90DF91DA
:10164000CF912CCBCF93DF931F92CDB7DEB719820A
:1016500011E080E8C82ED12C00E020E030E0A901A4
:10166000BE016F5F7F4F8091590290915A027FD4E3
:10167000E0915702F0915802882309F47DC02FEFC2
:101680003FEFA90160E070E0CF0171D4813021F714
:1016900080E0C3DF68EC70E080E090E00E94B91366
:1016A000E12CF12C8981882301F1812F0E2C01C0BE
:1016B000880F0A94EAF7B1DF6EE370E080E090E013
:1016C0000E94B91300E020E030E0A901BE016F5F85
:1016D0007F4F8091590290915A0249D48FEFE81AB6
:1016E000F80A88E0E816F104E9F661E088E0D6DA65
:1016F000E12CF12C8981882309F1C6010E2C02C04E
:10170000959587950A94E2F788DF6EE370E080E0B4
:1017100090E00E94B91300E020E030E0A901BE0192
:101720006F5F7F4F8091590290915A0220D48FEFC2
:10173000E81AF80A88E0E816F104E1F660E088E0CB
:10174000ADDA8981882361F002E020E030E0A90170
:10175000BE016F5F7F4F8091590290915A0270D302
:1017600000E020E030E0A90160E070E080915702E5
:101770009091580265D370CF00E02FEF3FEFA901A1
:1017800060E070E0CF01F3D3813009F065CF8FEFD7
:1017900044DF68EC70E080E090E0EBD720E030E0E0
:1017A000A90160E070E0809157029091580248D3FF
:1017B00061E088E073DA6AEF70E080E090E0D9D70A
:1017C00060E088E06BDA6AEF70E080E090E0D1D70B
:1017D00043CF40E061E081E001D390935A028093CF
:1017E000590243E060E081E0F9D29093580280937F
:1017F00057020895CF93DF9300D0CDB7DEB719829B
:10180000EE24EA94F12C99249A94B3E06B2E712C77
:1018100000E02FEF3FEFA901BE016E5F7F4F809187
:101820005B0290915C02A3D3182F813089F79A81D3
:10183000983539F58FEFF1DE64EF71E080E090E0EC
:10184000ECD880E0EADE64EF71E080E090E0E5D87B
:101850008FEFE3DE64EF71E080E090E0DED880E0BF
:10186000DCDE64EF71E080E090E0D7D8C8DA20E0F9
:1018700030E0A90160E070E0809157029091580239
:10188000B3C1983769F400E02FEF3FEFA90160E0A2
:1018900070E0809157029091580269D3FDDAB8CF79
:1018A000963441F468E571E084EA91E00E94E20236
:1018B000B7014BC09234A1F460E671E084EA91E094
:1018C0000E94E202B70189E027D9B70185E024D957
:1018D00060E08AE0E3D960E086E0E0D9198379C16D
:1018E000923599F467E871E084EA91E00E94E2029F
:1018F000B7018AE011D960E086E0D0D960E089E0E4
:10190000CDD9B70185E008D9E9CF9C3491F46EE7D1
:1019100071E084EA91E00E94E20260E08AE0BED9D0
:10192000B70186E0F9D8B70189E0F6D860E085E034
:10193000D4CF973471F465E671E084EA91E00E94B7
:10194000E202C701B3010E94C3188AE0E5D8B701DB
:101950000FC0993499F46FE671E084EA91E00E9437
:10196000E202B7018AE0D8D8C701B3010E94C318C8
:1019700086E0D2D860E089E091D9D8CF983471F46C
:101980006AE771E084EA91E00E94E202C701B301D4
:101990000E94C31889E0C0D8B7010FC09A34C1F4BF
:1019A00063E871E084EA91E00E94E202B70189E015
:1019B000B3D8C701B3010E94C31885E0ADD860E079
:1019C0008AE06CD960E086E069D981E0898301C151
:1019D000963511F461E003C0963721F460E087E0AA
:1019E0005DD916CF903319F4E12CF12C11CF91333E
:1019F000A1F41F921F921F929F92A12CB12C6501FE
:101A00001AE0E12EF12C00E010E020E030E0A90126
:101A100061E070E080E090E0C5C09233A1F41F92D5
:101A20001F921F929F92A12CB12C65011AE0E12E0A
:101A3000F12C00E010E020E030E0A90162E070E06D
:101A400080E090E0AFC09333A1F41F921F921F92E9
:101A50009F92A12CB12C65011AE0E12EF12C00E03F
:101A600010E020E030E0A90163E070E080E090E069
:101A700099C09433A1F41F921F921F929F92A12CA0
:101A8000B12C65011AE0E12EF12C00E010E020E01D
:101A900030E0A90164E070E080E090E083C095331D
:101AA000A1F41F921F921F929F92A12CB12C65014D
:101AB0001AE0E12EF12C00E010E020E030E0A90176
:101AC00065E070E080E090E06DC09633A1F41F9275
:101AD0001F921F929F92A12CB12C65011AE0E12E5A
:101AE000F12C00E010E020E030E0A90166E070E0B9
:101AF00080E090E057C09733A1F41F921F921F928D
:101B00009F92A12CB12C65011AE0E12EF12C00E08E
:101B100010E020E030E0A90167E070E080E090E0B4
:101B200041C09833A1F41F921F921F929F92A12C43
:101B3000B12C65011AE0E12EF12C00E010E020E06C
:101B400030E0A90168E070E080E090E02BC09933BC
:101B5000A1F41F921F921F929F92A12CB12C65019C
:101B60001AE0E12EF12C00E010E020E030E0A901C5
:101B700069E070E080E090E015C09137D9F41F92E1
:101B80001F921F929F92A12CB12C65011AE0E12EA9
:101B9000F12C00E010E020E030E0A9016AE070E004
:101BA00080E090E00E9445047B010F900F900F9021
:101BB0000F902ECE9335D1F460E08AE06FD860E0CC
:101BC00086E06CD860E089E069D860E085E066D89E
:101BD000198202E020E030E0A901BE016F5F7F4F73
:101BE0008091590290915A022BD112CE6DE871E08A
:101BF00084EA91E00E94D7026A8184EA91E00E941F
:101C0000F20206CE40E061E08AE0E8D090935C0208
:101C100080935B0208951F93CF93DF93EC01142F01
:101C200088A181110BC088819981892B09F041C05D
:101C30008A819B819BD71B821A823CC0482F50E02F
:101C4000111115C08C819D810E94471928A18C819A
:101C50009D81820F911D9D838C832A813B818217F8
:101C6000930738F1888199819D838C8322C08E816E
:101C70009F810E94471988A190E0919581959109D3
:101C80002E813F81280F391F3F832E834881598140
:101C90002417350730F42A813B81820F931F9F83DD
:101CA0008E83123031F48E8D882319F08E8D815001
:101CB0008E8F80E09E8D9F5F9E8FDF91CF911F91D1
:101CC0000895FC01CB0140A14423A1F050E02681FE
:101CD0003781240F351F378326836281738126174E
:101CE000370720F020813181378326836681778111
:101CF0000C94471908950F931F93CF93DF93EC0132
:101D00000FB6F8940F928C010D5E1F4F9AA1191611
:101D10005CF48B89882341F0C8011CD68111C3D69D
:101D20009AA191509AA3F2CF8FEF8AA30F900FBE82
:101D30000FB6F8940F928E01085F1F4F99A11916E4
:101D40005CF48885882341F0C80104D68111ABD6A4
:101D500099A1915099A3F2CF8FEF89A30F900FBE55
:101D6000DF91CF911F910F910895CF93DF93EC01F5
:101D70000FB6F8940F92288139819F8D48A1949FC6
:101D8000C0011124F901E80FF91FFB83EA831E8EBD
:101D90003D832C83841B9109820F931F9F838E8325
:101DA0008FEF89A38AA361110BC08885882381F0F6
:101DB000CE010896CFD5813059F40E94631708C030
:101DC000CE0108960E941718CE0143960E9417185C
:101DD0000F900FBE81E0DF91CF910895EF92FF92B7
:101DE0001F93CF93DF931F92CDB7DEB7182F6623D3
:101DF00031F0869F90011124C901019602C080E054
:101E000090E083966983FED67C016981009781F01A
:101E1000611104C0FC019183808304C08396F701A3
:101E200091838083F701178F60A361E0C7019DDF75
:101E3000C7010F90DF91CF911F91FF90EF90089510
:101E4000AF92BF92CF92DF92EF92FF920F93CF9318
:101E5000DF93CDB7DEB729970FB6F894DEBF0FBE7C
:101E6000CDBF7C016B012E833F834887598790E06B
:101E7000570188E0A80EB11C0FB6F8940F92F70135
:101E8000268D878D281710F00230B1F4402FB6014F
:101E9000C701C1DEF7019389992341F0C701439639
:101EA00059D5813029F40E94631702C08111FBCFFC
:101EB0000F900FBE81E04BC04E815F8168857985B0
:101EC000452B462B472B19F40F900FBE3FC09111A5
:101ED00003C0CE0101967BD50F900FBEA5D20FB6E1
:101EE000F8940F92F70181A18F3F09F411A2F70135
:101EF00082A18F3F09F412A20F900FBEBE016A5F4C
:101F00007F4FCE01019674D581111DC00FB6F89494
:101F10000F92F701968D0F900FBE878D98130FC00B
:101F20004E815F8168857985C501DAD4C701E3DE1A
:101F30004ED3882311F091E09FCFC5D7FCCFC701C6
:101F4000DADE45D3F8CFC701D6DE41D380E029964B
:101F50000FB6F894DEBF0FBECDBFDF91CF910F91CA
:101F6000FF90EF90DF90CF90BF90AF900895AF9229
:101F7000BF92CF92DF92EF92FF920F93CF93DF93B6
:101F8000CDB7DEB729970FB6F894DEBF0FBECDBF31
:101F90007C016B012E833F834887598790E057016E
:101FA00083E1A80EB11C0FB6F8940F92F701868D4D
:101FB000882361F1A680B780B601C70182DEF701F0
:101FC000011116C0868D8150868F80819181892B69
:101FD00021F406D6F70193838283F7018085882355
:101FE00089F0C7010896B6D4813061F46CD70AC075
:101FF000B782A6828389882329F0C7014396AAD491
:102000008111F4CF0F900FBE81E056C04E815F81E9
:1020100068857985452B462B472B19F40F900FBE09
:102020004AC0911103C0CE010196D1D40F900FBECA
:10203000FBD10FB6F8940F92F70181A18F3F09F4FD
:1020400011A2F70182A18F3F09F412A20F900FBED7
:10205000BE016A5F7F4FCE010196CAD4811128C0AC
:102060000FB6F8940F92F701868D0F900FBE811175
:102070001BC080819181892B41F40FB6F8940F9297
:102080008281938114D50F900FBE4E815F81688548
:102090007985C50125D4C7012EDE99D2882311F098
:1020A00091E081CF10D7FCCFC70125DE90D2F8CFC9
:1020B000C70121DE8CD280E029960FB6F894DEBFEE
:1020C0000FBECDBFDF91CF910F91FF90EF90DF90CA
:1020D000CF90BF90AF900895E0919102F09192025D
:1020E0008081811104C08FEF9FEFDC010EC0E09171
:1020F0009102F09192020780F085E02D0084F18535
:10210000E02D82819381A481B58180935E029093BA
:102110005F02A0936002B09361020895CF92DF92B4
:10212000EF92FF92E0911703F0911803628373839B
:1021300084839583C0906802D0906902E0906A021F
:10214000F0906B026C157D058E059F0578F460910B
:1021500017037091180380918F02909190026E5F27
:102160007F4FFF90EF90DF90CF9097C76B017C017E
:1021700060911703709118038091910290919202DF
:102180006E5F7F4F8AD780915E0290915F02A0912F
:102190006002B0916102C816D906EA06FB0640F457
:1021A000C0925E02D0925F02E0926002F092610201
:1021B000FF90EF90DF90CF9008955F926F927F92A3
:1021C0008F929F92AF92BF92CF92DF92EF92FF9247
:1021D0000F931F93CF93DF934C01162F572E5A0165
:1021E0003901C114D10431F4CA010CD56C01892B19
:1021F00009F4CAC08CE290E005D5EC01009779F0B3
:10220000DC8ECB8E21E0A21AB108AC0CBD1CBC0147
:10221000635E7F4FE12FF52DCF01089606C0C60102
:1022200081D5B2C0E817F90749F09F014191DB0160
:102230004D93BD01D9012C912111F4CF1CA2102F77
:102240000A3008F019E01A8F1DA31EA26E01B2E039
:10225000CB0ED11CC601FCD6CE010E96F9D6DB877B
:10226000CA878AE090E0A0E0B0E0811B9109A10953
:10227000B1098E879F87A88BB98BDF8BCE8B1FA26E
:1022800018A619A61AA61BA6A301B401C50174D5E8
:1022900099838883E114F10419F0F701D183C08395
:1022A0000FB6F8940F9280916C028F5F80936C024E
:1022B0008091170390911803892B99F5D0931803F7
:1022C000C093170380916C02813009F039C089EA0C
:1022D000E82E82E0F82EC701AAD6FBE0EF0EF11C33
:1022E00027E1E21623E0F206B1F78EE992E09FD6ED
:1022F00083E992E09CD684E892E099D689E792E05F
:1023000096D68DE692E093D68EE992E09093920273
:102310008093910283E992E09093900280938F02E0
:102320000FC08091660281110BC0E0911703F091FC
:102330001803828D081720F0D0931803C093170359
:10234000809162028F5F809362028A8D9091670212
:10235000981710F480936702ABE08A9FC0011124A4
:10236000B60187559D4F78D60F900FBE80916602BB
:10237000882341F0E0911703F0911803828D8017B4
:1023800008F4A1D581E001C08FEFDF91CF911F91BB
:102390000F91FF90EF90DF90CF90BF90AF909F9004
:1023A0008F907F906F905F900895AF92BF92CF9281
:1023B000DF92EF92FF920F93A12CB12CC12CD12C64
:1023C000E12CF12C00E020E030E045E550E06FE941
:1023D00071E086EF93E1F1DE8130F1F4F8944FEF94
:1023E0005FEFBA0140935E0250935F026093600218
:1023F00070936102809366021092680210926902E3
:1024000010926A0210926B020F91FF90EF90DF9092
:10241000CF90BF90AF901CC50F91FF90EF90DF90D1
:10242000CF90BF90AF90089580915D028F5F8093B1
:102430005D0208958F929F92AF92BF92EF92FF92AA
:102440000F931F93CF93DF9380915D028111A9C0F9
:102450008091680290916902A0916A02B0916B022A
:102460000196A11DB11D8093680290936902A0930B
:102470006A02B0936B028090680290906902A0900B
:102480006A02B0906B0281149104A104B104B1F40A
:10249000809191029091920220918F02309190024E
:1024A00030939202209391029093900280938F0236
:1024B000809163028F5F809363020EDE80915E02E3
:1024C00090915F02A0916002B0916102C0E0881615
:1024D0009906AA06BB0608F454C0DBE0E09191021D
:1024E000F09192028081811104C08FEF9FEFDC0197
:1024F00013C0E0919102F09192020780F085E02DE7
:1025000000851185F80182819381A481B5818816A7
:102510009906AA06BB0648F480935E0290935F0278
:10252000A0936002B09361022CC07801F2E0EF0E3C
:10253000F11CC701F6D5D80158968D919C915997F9
:10254000892B19F0C8010E96ECD5F801928D809177
:102550006702891710F490936702D99FC001112474
:10256000B70187559D4F78D5E0911703F091180377
:10257000D8015A969C91828D981708F4AFCFC1E08C
:10258000ADCFE0911703F0911803E28DBBE0EB9F14
:10259000F0011124E755FD4F8081823040F0C1E009
:1025A00006C0809165028F5F80936502C0E08091D4
:1025B00064028111C1E08C2FDF91CF911F910F91A7
:1025C000FF90EF90BF90AF909F908F900895EF9203
:1025D000FF920F931F93CF93DF930FB6F8940F9250
:1025E00080915D02815080935D0280915D0288231D
:1025F00011F080E04EC080916C028823D1F38BE013
:10260000F82EEE24E39480918402882339F1E0913E
:102610008B02F0918C02C085D185CE010E9681D5BA
:102620008E010E5F1F4FC8017CD59A8D8091670285
:10263000891710F490936702F99EC0011124B80124
:1026400087559D4F09D5E0911703F09118039A8D96
:10265000828D9817C0F2E0926402D5CF8091650216
:10266000811108C080916402813009F0C2CF2BD45F
:1026700081E00FC0C1E080916502882399F3DADE22
:102680008111C0936402809165028150809365023C
:10269000F2CF0F900FBEDF91CF911F910F91FF905E
:1026A000EF900895AF92BF92CF92DF92EF92FF9298
:1026B0000F931F93CF93DF9300D000D0CDB7DEB739
:1026C0005C0149835A836B837C83AEDE0091680290
:1026D0001091690220916A0230916B02F5018081AC
:1026E0009181A281B38149815A816B817C816C0186
:1026F0007D01C40ED51EE61EF71E081719072A070E
:102700003B0730F4C816D906EA06FB0660F405C09C
:10271000C816D906EA06FB0640F091E00C151D0527
:102720002E053F0518F090E001C091E0F501C08250
:10273000D182E282F382992349F08091170390912C
:1027400018030296EED4C701B601E8DC40DF811120
:1027500001C0B9D30F900F900F900F90DF91CF91E0
:102760001F910F91FF90EF90DF90CF90BF90AF90AF
:102770000895CF92DF92EF92FF92CF93DF9300D034
:1027800000D0CDB7DEB7611571058105910511F453
:102790009AD321C069837A838B839C8345DEC09062
:1027A0006802D0906902E0906A02F0906B02698141
:1027B0007A818B819C81C60ED71EE81EF91E8091FE
:1027C0001703909118030296ACD4C701B601A6DC9A
:1027D000FEDE8823E9F20F900F900F900F90DF91AB
:1027E000CF91FF90EF90DF90CF9008958091780285
:1027F000882321F119DEC0917902E9DECC23B1F3FF
:102800000FB6F8940F92E0918002F0918102C0859A
:10281000D185CE01029685D480916C02815080933F
:102820006C02809178028150809378020F900FBEE5
:102830008B8D9C8D77D2CE0175D2D8CF8091A90295
:102840008230A0F240D3D2CF80915D02882321F064
:1028500081E0809364020895109264029BE0E0910D
:1028600067029E9FF0011124E755FD4F8081811181
:1028700006C080916702815080936702F0CF8091FB
:10288000670290E04BE0489F9001499F300D112472
:10289000F901E755FD4FA181B28114960D90BC91CD
:1028A000A02DB283A18324553D4FA217B30731F465
:1028B00014962D913C911597328321832BE0289F0C
:1028C000F001299FF00D1124E755FD4F0180F281A1
:1028D000E02D8085918590931803809317030895C8
:1028E000CF92DF92EF92FF926A017B012091170352
:1028F00030911803B901625F7F4FCFD380911703E6
:102900009091180302960DD48FEFC816D806E806EA
:10291000F80669F460911703709118036E5F7F4F9A
:102920008DE692E0FF90EF90DF90CF9095C380917D
:10293000680290916902A0916A02B0916B02BC0199
:10294000CD016C0D7D1D8E1D9F1DFF90EF90DF90C2
:10295000CF90E4CB0F931F93CF93DF93DC011796B7
:10296000ED91FC911897C085D1858E01025F1F4FB4
:10297000C801D7D380915D02811113C00C50110999
:10298000C801CFD39A8D80916702891710F4909374
:102990006702BBE09B9FC0011124B80187559D4F82
:1029A00003C0B80184E892E057D3E0911703F09197
:1029B00018039A8D828D891720F481E08093640238
:1029C00001C080E0DF91CF911F910F910895209178
:1029D0006302FC012083409168025091690260917A
:1029E0006A0270916B0241835283638374830895FA
:1029F0008F929F92AF92BF92CF92DF92EF92FF920F
:102A00000F931F93CF93DF93FB010FB6F8940F92B0
:102A1000C0906802D0906902E0906A02F0906B0268
:102A200040815181628173814F3F2FEF52076207CE
:102A3000720739F1B0916302EC01A88109811A8112
:102A40002B813C81BA1729F0C016D106E206F306A5
:102A5000D0F446015701801A910AA20AB30A8416DB
:102A60009506A606B70678F40C191D092E093F092C
:102A7000400F511F621F731F408351836283738312
:102A8000A6DF80E001C081E00F900FBEDF91CF9103
:102A90001F910F91FF90EF90DF90CF90BF90AF907C
:102AA0009F908F90089581E08093640208950F9322
:102AB0001F93CF93DF93FC01892B09F452C0828DC1
:102AC000A0911703B09118035A969C91891708F0AA
:102AD00048C0468557856089718977FD12C0A091ED
:102AE0001703B09118035A969C914AE050E060E0B9
:102AF00070E0491B51096109710946875787608B4E
:102B0000718B2BE0829FC001112487559D4F248536
:102B1000358528173907F1F48F01EF012296CE0190
:102B200000D3E0911703F0911803928DF801928F72
:102B300080916702891710F490936702FBE09F9FD2
:102B4000C0011124BE0187559D4FDF91CF911F9188
:102B50000F9182C2A0911703B09118035A968C91DD
:102B6000828FDF91CF911F910F9108950F931F9343
:102B7000CF93DF93FC01892B11F480E02CC086A158
:102B8000815086A3228D95A12917B9F38111F5CF24
:102B9000EF018F010E5F1F4FC801C3D29DA19A8F15
:102BA0004AE050E060E070E0491B51096109710999
:102BB0004E875F87688B798B80916702891710F445
:102BC000909367022BE0929FC0011124B8018755B2
:102BD0009D4F42D281E0DF91CF911F910F910895D7
:102BE0008091170390911803892B39F0E091170316
:102BF000F091180386A18F5F86A3809117039091AF
:102C0000180308950F931F93CF93DF93EC010CDC0F
:102C100080911903811121C083E293E090931F03F7
:102C200080931E0310922103109220038BED95E0F8
:102C300090931D0380931C0310921B0310921A03A0
:102C400090932603809325038AE193E090932403D5
:102C50008093230381E080931903209709F0249641
:102C6000CE0101978A3D954008F053C0E0911E03C4
:102C7000F0911F03AEE1B3E0828193818C179D0731
:102C800028F023E0EA31F20749F443C02081318182
:102C900021153105B1F3DF01F901EECF0D911C9142
:102CA00011970C5F1F4F208131812D933C938C1B1A
:102CB0009D0B8930910500F1DF01AC0FBD1F13960C
:102CC0009C938E931297D383C28312962D913C913D
:102CD00013976EE173E0EB0188819981EC014A81E1
:102CE0005B814217530710F4BC01F5CF11969C93FA
:102CF0008E93EB01B983A883809105019091060121
:102D000022813381821B930B9093060180930501EE
:102D100002C000E010E05BDCC801DF91CF911F91A1
:102D20000F910895CF93DF93009719F1EC01249749
:102D30007BDB8A819B81EEE1F3E0A081B181129679
:102D40002D913C9113972817390710F4FD01F5CF09
:102D5000B983A883D183C0832091050130910601F6
:102D6000820F931F9093060180930501DF91CF910D
:102D70002ECCDF91CF91089531E1FC013083319762
:102D800022E220833197A3E3A083319760833197B8
:102D9000708331971082319760E860833197108299
:102DA000319762E06083319763E06083319764E03C
:102DB0006083319765E06083319766E06083319787
:102DC00067E06083319768E06083319769E06083F2
:102DD000319760E1608331973083319732E13083FE
:102DE000319733E13083319734E13083319735E1E6
:102DF0003083319736E13083319737E13083319733
:102E000038E13083319739E13083319730E23083D4
:102E1000319731E2308331972083319723E2208349
:102E20003197408331975083319726E22083319741
:102E300027E22083319728E22083319729E22083FB
:102E4000319720E32083319721E3208386970895EB
:102E500089E08093890083EC809388008BE08093E5
:102E60008100EFE6F0E0808182608083A09117030B
:102E7000B0911803CD91CDBFDD91DEBFFF91EF91F1
:102E8000DF91CF91BF91AF919F918F917F916F9182
:102E90005F914F913F912F911F910F91FF90EF9074
:102EA000DF90CF90BF90AF909F908F907F906F906A
:102EB0005F904F903F902F901F900F900FBE0F90FC
:102EC000089581E008950F920FB6F8940F921F9223
:102ED00011242F923F924F925F926F927F928F9226
:102EE0009F92AF92BF92CF92DF92EF92FF920F9399
:102EF0001F932F933F934F935F936F937F938F9382
:102F00009F93AF93BF93CF93DF93EF93FF93A091E2
:102F10001703B09118030DB60D920EB60D9294DC06
:102F2000A0911703B0911803CD91CDBFDD91DEBF05
:102F3000FF91EF91DF91CF91BF91AF919F918F91D1
:102F40007F916F915F914F913F912F911F910F91C1
:102F5000FF90EF90DF90CF90BF90AF909F908F90B9
:102F60007F906F905F904F903F902F901F900F90A9
:102F70000FBE0F9008950F920FB6F8940F921F9204
:102F800011242F923F924F925F926F927F928F9275
:102F90009F92AF92BF92CF92DF92EF92FF920F93E8
:102FA0001F932F933F934F935F936F937F938F93D1
:102FB0009F93AF93BF93CF93DF93EF93FF93A09132
:102FC0001703B09118030DB60D920EB60D9232DABA
:102FD00081113ADCA0911703B0911803CD91CDBFB8
:102FE000DD91DEBFFF91EF91DF91CF91BF91AF9166
:102FF0009F918F917F916F915F914F913F912F9111
:103000001F910F91FF90EF90DF90CF90BF90AF9006
:103010009F908F907F906F905F904F903F902F90F8
:103020001F900F900FBE0F900895A5DF1895FC011B
:103030000396928381834FEF5FEFBA0143835483FA
:10304000658376839087878392878187108208952E
:10305000FC01138612860895CF93DF939C01FB0138
:10306000DC011196CD91DC911297D583C4838E81BA
:103070009F81978386838E819F81DC0115967C9347
:103080006E9314977F836E8333872287F901808143
:103090008F5F8083DF91CF910895EF92FF920F931E
:1030A0001F93CF93DF937C01FB01408151816281AB
:1030B00073814F3F8FEF58076807780721F4E701C6
:1030C000A985BA8512C0D701139614968D919C914B
:1030D0001597EC01088119812A813B81401751071E
:1030E0006207730710F0DC01F0CF14968D919C916C
:1030F000159795838483EC01FF83EE83B783A683C2
:103100001596FC93EE931497F386E286F70180817F
:103110008F5F8083DF91CF911F910F91FF90EF9090
:103120000895CF93DF93FC01A285B38584819581B7
:1031300026813781EC013F832E83C681D7819D8311
:103140008C8311968D919C9112978E179F0721F475
:103150001296DC93CE931197138612868C91815030
:103160008C93DF91CF910895DB018F939F935CD077
:10317000BF91AF91A29F800D911DA39F900DB29F13
:10318000900D1124089597FB072E16F4009406D095
:1031900077FD08D053D007FC05D03EF4909581957B
:1031A0009F4F0895709561957F4F0895A1E21A2E63
:1031B000AA1BBB1BFD010DC0AA1FBB1FEE1FFF1FDB
:1031C000A217B307E407F50720F0A21BB30BE40B2B
:1031D000F50B661F771F881F991F1A9469F7609572
:1031E0007095809590959B01AC01BD01CF0108952C
:1031F000052E97FB16F400940FD057FD05D0D6DFAF
:1032000007FC02D046F408C05095409530952195B2
:103210003F4F4F4F5F4F0895909580957095619502
:103220007F4F8F4F9F4F089523D0A59F900DB49F40
:10323000900DA49F800D911D11240895AA1BBB1B06
:1032400051E107C0AA1FBB1FA617B70710F0A61BA6
:10325000B70B881F991F5A95A9F780959095BC01C7
:10326000CD010895EE0FFF1F0590F491E02D099414
:10327000A29FB001B39FC001A39F700D811D1124B7
:10328000911DB29F700D811D1124911D0895FB01A8
:10329000DC0102C001900D9241505040D8F70895D2
:0432A000F894FFCFD0
:1032A400FFF603F603DB050000000015019702B7E3
:1032B40000F4008900A3009500000000004D020DF9
:1032C4000A006E616E00696E66006F766600426188
:1032D4006279536861726B00677265656E4C454430
:1032E400006D6F76656D656E747461736B00626CEE
:1032F4007565746F6F746800464F525741524400AD
:103304004241434B0046524F4E544C4546540046AE
:10331400524F4E545249474854004241434B4C4546
:103324004654004241434B524947485400496E7643
:10333400616C696420636F6D6D616E643A2000494D
:04334400444C4500B0
:00000001FF
